{
  "transactions": [
    {
      "hash": null,
      "transactionType": "CREATE",
      "contractName": "Exploit",
      "contractAddress": "0xf6ea2eda65daa3413940f02ff2bf1c6b2c5d6376",
      "function": null,
      "arguments": null,
      "transaction": {
        "from": "0x3cf0172948f89d58320a8d7183108ca758d64f49",
        "gas": "0x63e87",
        "value": "0x0",
        "input": "0x608060405234801561001057600080fd5b506104bd806100206000396000f3fe608060405234801561001057600080fd5b50600436106100415760003560e01c8063437656a8146100465780639cb8a26a14610062578063f548a13e1461006c575b600080fd5b610060600480360381019061005b91906101b8565b610088565b005b61006a6100f7565b005b610086600480360381019061008191906101b8565b610110565b005b8073ffffffffffffffffffffffffffffffffffffffff166317799f3660006040518263ffffffff1660e01b81526004016100c29190610237565b600060405180830381600087803b1580156100dc57600080fd5b505af11580156100f0573d6000803e3d6000fd5b5050505050565b3073ffffffffffffffffffffffffffffffffffffffff16ff5b8060405161011d90610148565b6101279190610261565b604051809103906000f080158015610143573d6000803e3d6000fd5b505050565b61020b8061027d83390190565b600080fd5b600073ffffffffffffffffffffffffffffffffffffffff82169050919050565b60006101858261015a565b9050919050565b6101958161017a565b81146101a057600080fd5b50565b6000813590506101b28161018c565b92915050565b6000602082840312156101ce576101cd610155565b5b60006101dc848285016101a3565b91505092915050565b6000819050919050565b6000819050919050565b60008160001b9050919050565b600061022161021c610217846101e5565b6101f9565b6101ef565b9050919050565b61023181610206565b82525050565b600060208201905061024c6000830184610228565b92915050565b61025b8161017a565b82525050565b60006020820190506102766000830184610252565b9291505056fe608060405234801561001057600080fd5b5060405161020b38038061020b8339818101604052810190610032919061010a565b8073ffffffffffffffffffffffffffffffffffffffff1663a9059cbb32617a696040518363ffffffff1660e01b815260040161006f929190610195565b600060405180830381600087803b15801561008957600080fd5b505af115801561009d573d6000803e3d6000fd5b50505050506101be565b600080fd5b600073ffffffffffffffffffffffffffffffffffffffff82169050919050565b60006100d7826100ac565b9050919050565b6100e7816100cc565b81146100f257600080fd5b50565b600081519050610104816100de565b92915050565b6000602082840312156101205761011f6100a7565b5b600061012e848285016100f5565b91505092915050565b610140816100cc565b82525050565b6000819050919050565b6000819050919050565b6000819050919050565b600061017f61017a61017584610146565b61015a565b610150565b9050919050565b61018f81610164565b82525050565b60006040820190506101aa6000830185610137565b6101b76020830184610186565b9392505050565b603f806101cc6000396000f3fe6080604052600080fdfea2646970667358221220e10efacba5c050112419c136e738e6e155fee87d4d228fb31c4f21f6212f5f1864736f6c634300080d0033a2646970667358221220f4664726d94214323ee5e3e4e6f496e5da56c920454ecd19b669ea1eb9f464e464736f6c634300080d0033",
        "nonce": "0x0",
        "chainId": "0x7a69"
      },
      "additionalContracts": [],
      "isFixedGasLimit": false
    },
    {
      "hash": null,
      "transactionType": "CALL",
      "contractName": null,
      "contractAddress": "0xcbe9c765549651217b22cebb74f548e331f4294d",
      "function": "claim()",
      "arguments": [],
      "transaction": {
        "from": "0x3cf0172948f89d58320a8d7183108ca758d64f49",
        "to": "0xcbe9c765549651217b22cebb74f548e331f4294d",
        "gas": "0x1de1b",
        "value": "0x0",
        "input": "0x4e71d92d",
        "nonce": "0x1",
        "chainId": "0x7a69"
      },
      "additionalContracts": [],
      "isFixedGasLimit": false
    },
    {
      "hash": null,
      "transactionType": "CREATE",
      "contractName": "Wallet",
      "contractAddress": "0xb5d647b18d494d37089ec0f0b96e08b09dd46d62",
      "function": null,
      "arguments": null,
      "transaction": {
        "from": "0x3cf0172948f89d58320a8d7183108ca758d64f49",
        "gas": "0x7a56c",
        "value": "0x0",
        "input": "0x608060405234801561001057600080fd5b50306000806101000a81548173ffffffffffffffffffffffffffffffffffffffff021916908373ffffffffffffffffffffffffffffffffffffffff160217905550610598806100606000396000f3fe608060405234801561001057600080fd5b50600436106100575760003560e01c80631e83409a1461005c578063893d20e8146100785780638ab65686146100965780638da5cb5b146100b2578063beabacc8146100d0575b600080fd5b610076600480360381019061007191906103c8565b6100ec565b005b61008061014f565b60405161008d9190610404565b60405180910390f35b6100b060048036038101906100ab919061041f565b610178565b005b6100ba61025b565b6040516100c79190610404565b60405180910390f35b6100ea60048036038101906100e59190610495565b61027f565b005b8073ffffffffffffffffffffffffffffffffffffffff16634e71d92d6040518163ffffffff1660e01b8152600401600060405180830381600087803b15801561013457600080fd5b505af1158015610148573d6000803e3d6000fd5b5050505050565b60008060009054906101000a900473ffffffffffffffffffffffffffffffffffffffff16905090565b60008273ffffffffffffffffffffffffffffffffffffffff1663206a19ae6040518163ffffffff1660e01b8152600401602060405180830381865afa1580156101c5573d6000803e3d6000fd5b505050506040513d601f19601f820116820180604052508101906101e991906104fd565b90508073ffffffffffffffffffffffffffffffffffffffff16635c19a95c836040518263ffffffff1660e01b81526004016102249190610404565b600060405180830381600087803b15801561023e57600080fd5b505af1158015610252573d6000803e3d6000fd5b50505050505050565b60008054906101000a900473ffffffffffffffffffffffffffffffffffffffff1681565b60008373ffffffffffffffffffffffffffffffffffffffff1663206a19ae6040518163ffffffff1660e01b8152600401602060405180830381865afa1580156102cc573d6000803e3d6000fd5b505050506040513d601f19601f820116820180604052508101906102f091906104fd565b90508073ffffffffffffffffffffffffffffffffffffffff1663a9059cbb84846040518363ffffffff1660e01b815260040161032d929190610539565b600060405180830381600087803b15801561034757600080fd5b505af115801561035b573d6000803e3d6000fd5b5050505050505050565b600080fd5b600073ffffffffffffffffffffffffffffffffffffffff82169050919050565b60006103958261036a565b9050919050565b6103a58161038a565b81146103b057600080fd5b50565b6000813590506103c28161039c565b92915050565b6000602082840312156103de576103dd610365565b5b60006103ec848285016103b3565b91505092915050565b6103fe8161038a565b82525050565b600060208201905061041960008301846103f5565b92915050565b6000806040838503121561043657610435610365565b5b6000610444858286016103b3565b9250506020610455858286016103b3565b9150509250929050565b6000819050919050565b6104728161045f565b811461047d57600080fd5b50565b60008135905061048f81610469565b92915050565b6000806000606084860312156104ae576104ad610365565b5b60006104bc868287016103b3565b93505060206104cd868287016103b3565b92505060406104de86828701610480565b9150509250925092565b6000815190506104f78161039c565b92915050565b60006020828403121561051357610512610365565b5b6000610521848285016104e8565b91505092915050565b6105338161045f565b82525050565b600060408201905061054e60008301856103f5565b61055b602083018461052a565b939250505056fea2646970667358221220dbc3e2c7740631c8486119d732e4b288887a94f68cc6db7432360bf020d3268264736f6c634300080d0033",
        "nonce": "0x2",
        "chainId": "0x7a69"
      },
      "additionalContracts": [],
      "isFixedGasLimit": false
    },
    {
      "hash": null,
      "transactionType": "CALL",
      "contractName": null,
      "contractAddress": "0xb09221660795dec127f8a6a71a622855ed696286",
      "function": "transfer(address,uint256)",
      "arguments": [
        "0xb5D647B18d494d37089eC0f0b96e08b09Dd46d62",
        "10000000000000000000000"
      ],
      "transaction": {
        "from": "0x3cf0172948f89d58320a8d7183108ca758d64f49",
        "to": "0xb09221660795dec127f8a6a71a622855ed696286",
        "gas": "0xffa3",
        "value": "0x0",
        "input": "0xa9059cbb000000000000000000000000b5d647b18d494d37089ec0f0b96e08b09dd46d6200000000000000000000000000000000000000000000021e19e0c9bab2400000",
        "nonce": "0x3",
        "chainId": "0x7a69"
      },
      "additionalContracts": [],
      "isFixedGasLimit": false
    },
    {
      "hash": null,
      "transactionType": "CALL",
      "contractName": "Wallet",
      "contractAddress": "0xb5d647b18d494d37089ec0f0b96e08b09dd46d62",
      "function": "delegate(address,address)",
      "arguments": [
        "0xcBE9c765549651217B22CEBb74F548E331f4294d",
        "0x3cf0172948f89d58320A8D7183108CA758D64F49"
      ],
      "transaction": {
        "from": "0xb5d647b18d494d37089ec0f0b96e08b09dd46d62",
        "to": "0xb5d647b18d494d37089ec0f0b96e08b09dd46d62",
        "gas": "0x2b44d",
        "value": "0x0",
        "input": "0x8ab65686000000000000000000000000cbe9c765549651217b22cebb74f548e331f4294d0000000000000000000000003cf0172948f89d58320a8d7183108ca758d64f49",
        "nonce": "0x1",
        "chainId": "0x7a69"
      },
      "additionalContracts": [],
      "isFixedGasLimit": false
    },
    {
      "hash": null,
      "transactionType": "CALL",
      "contractName": "Wallet",
      "contractAddress": "0xb5d647b18d494d37089ec0f0b96e08b09dd46d62",
      "function": "transfer(address,address,uint256)",
      "arguments": [
        "0xcBE9c765549651217B22CEBb74F548E331f4294d",
        "0x3cf0172948f89d58320A8D7183108CA758D64F49",
        "10000000000000000000000"
      ],
      "transaction": {
        "from": "0xb5d647b18d494d37089ec0f0b96e08b09dd46d62",
        "to": "0xb5d647b18d494d37089ec0f0b96e08b09dd46d62",
        "gas": "0x136c8",
        "value": "0x0",
        "input": "0xbeabacc8000000000000000000000000cbe9c765549651217b22cebb74f548e331f4294d0000000000000000000000003cf0172948f89d58320a8d7183108ca758d64f4900000000000000000000000000000000000000000000021e19e0c9bab2400000",
        "nonce": "0x2",
        "chainId": "0x7a69"
      },
      "additionalContracts": [],
      "isFixedGasLimit": false
    },
    {
      "hash": null,
      "transactionType": "CREATE",
      "contractName": "Wallet",
      "contractAddress": "0xe038c4889f3e09109eb2d05c7ebe06a030eb4080",
      "function": null,
      "arguments": null,
      "transaction": {
        "from": "0x3cf0172948f89d58320a8d7183108ca758d64f49",
        "gas": "0x7a56c",
        "value": "0x0",
        "input": "0x608060405234801561001057600080fd5b50306000806101000a81548173ffffffffffffffffffffffffffffffffffffffff021916908373ffffffffffffffffffffffffffffffffffffffff160217905550610598806100606000396000f3fe608060405234801561001057600080fd5b50600436106100575760003560e01c80631e83409a1461005c578063893d20e8146100785780638ab65686146100965780638da5cb5b146100b2578063beabacc8146100d0575b600080fd5b610076600480360381019061007191906103c8565b6100ec565b005b61008061014f565b60405161008d9190610404565b60405180910390f35b6100b060048036038101906100ab919061041f565b610178565b005b6100ba61025b565b6040516100c79190610404565b60405180910390f35b6100ea60048036038101906100e59190610495565b61027f565b005b8073ffffffffffffffffffffffffffffffffffffffff16634e71d92d6040518163ffffffff1660e01b8152600401600060405180830381600087803b15801561013457600080fd5b505af1158015610148573d6000803e3d6000fd5b5050505050565b60008060009054906101000a900473ffffffffffffffffffffffffffffffffffffffff16905090565b60008273ffffffffffffffffffffffffffffffffffffffff1663206a19ae6040518163ffffffff1660e01b8152600401602060405180830381865afa1580156101c5573d6000803e3d6000fd5b505050506040513d601f19601f820116820180604052508101906101e991906104fd565b90508073ffffffffffffffffffffffffffffffffffffffff16635c19a95c836040518263ffffffff1660e01b81526004016102249190610404565b600060405180830381600087803b15801561023e57600080fd5b505af1158015610252573d6000803e3d6000fd5b50505050505050565b60008054906101000a900473ffffffffffffffffffffffffffffffffffffffff1681565b60008373ffffffffffffffffffffffffffffffffffffffff1663206a19ae6040518163ffffffff1660e01b8152600401602060405180830381865afa1580156102cc573d6000803e3d6000fd5b505050506040513d601f19601f820116820180604052508101906102f091906104fd565b90508073ffffffffffffffffffffffffffffffffffffffff1663a9059cbb84846040518363ffffffff1660e01b815260040161032d929190610539565b600060405180830381600087803b15801561034757600080fd5b505af115801561035b573d6000803e3d6000fd5b5050505050505050565b600080fd5b600073ffffffffffffffffffffffffffffffffffffffff82169050919050565b60006103958261036a565b9050919050565b6103a58161038a565b81146103b057600080fd5b50565b6000813590506103c28161039c565b92915050565b6000602082840312156103de576103dd610365565b5b60006103ec848285016103b3565b91505092915050565b6103fe8161038a565b82525050565b600060208201905061041960008301846103f5565b92915050565b6000806040838503121561043657610435610365565b5b6000610444858286016103b3565b9250506020610455858286016103b3565b9150509250929050565b6000819050919050565b6104728161045f565b811461047d57600080fd5b50565b60008135905061048f81610469565b92915050565b6000806000606084860312156104ae576104ad610365565b5b60006104bc868287016103b3565b93505060206104cd868287016103b3565b92505060406104de86828701610480565b9150509250925092565b6000815190506104f78161039c565b92915050565b60006020828403121561051357610512610365565b5b6000610521848285016104e8565b91505092915050565b6105338161045f565b82525050565b600060408201905061054e60008301856103f5565b61055b602083018461052a565b939250505056fea2646970667358221220dbc3e2c7740631c8486119d732e4b288887a94f68cc6db7432360bf020d3268264736f6c634300080d0033",
        "nonce": "0x4",
        "chainId": "0x7a69"
      },
      "additionalContracts": [],
      "isFixedGasLimit": false
    },
    {
      "hash": null,
      "transactionType": "CALL",
      "contractName": null,
      "contractAddress": "0xb09221660795dec127f8a6a71a622855ed696286",
      "function": "transfer(address,uint256)",
      "arguments": [
        "0xe038c4889F3e09109eB2d05C7EBe06a030eB4080",
        "10000000000000000000000"
      ],
      "transaction": {
        "from": "0x3cf0172948f89d58320a8d7183108ca758d64f49",
        "to": "0xb09221660795dec127f8a6a71a622855ed696286",
        "gas": "0xffa3",
        "value": "0x0",
        "input": "0xa9059cbb000000000000000000000000e038c4889f3e09109eb2d05c7ebe06a030eb408000000000000000000000000000000000000000000000021e19e0c9bab2400000",
        "nonce": "0x5",
        "chainId": "0x7a69"
      },
      "additionalContracts": [],
      "isFixedGasLimit": false
    },
    {
      "hash": null,
      "transactionType": "CALL",
      "contractName": "Wallet",
      "contractAddress": "0xe038c4889f3e09109eb2d05c7ebe06a030eb4080",
      "function": "delegate(address,address)",
      "arguments": [
        "0xcBE9c765549651217B22CEBb74F548E331f4294d",
        "0x3cf0172948f89d58320A8D7183108CA758D64F49"
      ],
      "transaction": {
        "from": "0xe038c4889f3e09109eb2d05c7ebe06a030eb4080",
        "to": "0xe038c4889f3e09109eb2d05c7ebe06a030eb4080",
        "gas": "0x18272",
        "value": "0x0",
        "input": "0x8ab65686000000000000000000000000cbe9c765549651217b22cebb74f548e331f4294d0000000000000000000000003cf0172948f89d58320a8d7183108ca758d64f49",
        "nonce": "0x1",
        "chainId": "0x7a69"
      },
      "additionalContracts": [],
      "isFixedGasLimit": false
    },
    {
      "hash": null,
      "transactionType": "CALL",
      "contractName": "Wallet",
      "contractAddress": "0xe038c4889f3e09109eb2d05c7ebe06a030eb4080",
      "function": "transfer(address,address,uint256)",
      "arguments": [
        "0xcBE9c765549651217B22CEBb74F548E331f4294d",
        "0x3cf0172948f89d58320A8D7183108CA758D64F49",
        "10000000000000000000000"
      ],
      "transaction": {
        "from": "0xe038c4889f3e09109eb2d05c7ebe06a030eb4080",
        "to": "0xe038c4889f3e09109eb2d05c7ebe06a030eb4080",
        "gas": "0x136c8",
        "value": "0x0",
        "input": "0xbeabacc8000000000000000000000000cbe9c765549651217b22cebb74f548e331f4294d0000000000000000000000003cf0172948f89d58320a8d7183108ca758d64f4900000000000000000000000000000000000000000000021e19e0c9bab2400000",
        "nonce": "0x2",
        "chainId": "0x7a69"
      },
      "additionalContracts": [],
      "isFixedGasLimit": false
    },
    {
      "hash": null,
      "transactionType": "CREATE",
      "contractName": "Wallet",
      "contractAddress": "0x6f1b4077fb9ca4f509ba4364d8be7bc80f017f4a",
      "function": null,
      "arguments": null,
      "transaction": {
        "from": "0x3cf0172948f89d58320a8d7183108ca758d64f49",
        "gas": "0x7a56c",
        "value": "0x0",
        "input": "0x608060405234801561001057600080fd5b50306000806101000a81548173ffffffffffffffffffffffffffffffffffffffff021916908373ffffffffffffffffffffffffffffffffffffffff160217905550610598806100606000396000f3fe608060405234801561001057600080fd5b50600436106100575760003560e01c80631e83409a1461005c578063893d20e8146100785780638ab65686146100965780638da5cb5b146100b2578063beabacc8146100d0575b600080fd5b610076600480360381019061007191906103c8565b6100ec565b005b61008061014f565b60405161008d9190610404565b60405180910390f35b6100b060048036038101906100ab919061041f565b610178565b005b6100ba61025b565b6040516100c79190610404565b60405180910390f35b6100ea60048036038101906100e59190610495565b61027f565b005b8073ffffffffffffffffffffffffffffffffffffffff16634e71d92d6040518163ffffffff1660e01b8152600401600060405180830381600087803b15801561013457600080fd5b505af1158015610148573d6000803e3d6000fd5b5050505050565b60008060009054906101000a900473ffffffffffffffffffffffffffffffffffffffff16905090565b60008273ffffffffffffffffffffffffffffffffffffffff1663206a19ae6040518163ffffffff1660e01b8152600401602060405180830381865afa1580156101c5573d6000803e3d6000fd5b505050506040513d601f19601f820116820180604052508101906101e991906104fd565b90508073ffffffffffffffffffffffffffffffffffffffff16635c19a95c836040518263ffffffff1660e01b81526004016102249190610404565b600060405180830381600087803b15801561023e57600080fd5b505af1158015610252573d6000803e3d6000fd5b50505050505050565b60008054906101000a900473ffffffffffffffffffffffffffffffffffffffff1681565b60008373ffffffffffffffffffffffffffffffffffffffff1663206a19ae6040518163ffffffff1660e01b8152600401602060405180830381865afa1580156102cc573d6000803e3d6000fd5b505050506040513d601f19601f820116820180604052508101906102f091906104fd565b90508073ffffffffffffffffffffffffffffffffffffffff1663a9059cbb84846040518363ffffffff1660e01b815260040161032d929190610539565b600060405180830381600087803b15801561034757600080fd5b505af115801561035b573d6000803e3d6000fd5b5050505050505050565b600080fd5b600073ffffffffffffffffffffffffffffffffffffffff82169050919050565b60006103958261036a565b9050919050565b6103a58161038a565b81146103b057600080fd5b50565b6000813590506103c28161039c565b92915050565b6000602082840312156103de576103dd610365565b5b60006103ec848285016103b3565b91505092915050565b6103fe8161038a565b82525050565b600060208201905061041960008301846103f5565b92915050565b6000806040838503121561043657610435610365565b5b6000610444858286016103b3565b9250506020610455858286016103b3565b9150509250929050565b6000819050919050565b6104728161045f565b811461047d57600080fd5b50565b60008135905061048f81610469565b92915050565b6000806000606084860312156104ae576104ad610365565b5b60006104bc868287016103b3565b93505060206104cd868287016103b3565b92505060406104de86828701610480565b9150509250925092565b6000815190506104f78161039c565b92915050565b60006020828403121561051357610512610365565b5b6000610521848285016104e8565b91505092915050565b6105338161045f565b82525050565b600060408201905061054e60008301856103f5565b61055b602083018461052a565b939250505056fea2646970667358221220dbc3e2c7740631c8486119d732e4b288887a94f68cc6db7432360bf020d3268264736f6c634300080d0033",
        "nonce": "0x6",
        "chainId": "0x7a69"
      },
      "additionalContracts": [],
      "isFixedGasLimit": false
    },
    {
      "hash": null,
      "transactionType": "CALL",
      "contractName": null,
      "contractAddress": "0xb09221660795dec127f8a6a71a622855ed696286",
      "function": "transfer(address,uint256)",
      "arguments": [
        "0x6F1B4077fB9CA4F509BA4364D8BE7Bc80f017F4a",
        "10000000000000000000000"
      ],
      "transaction": {
        "from": "0x3cf0172948f89d58320a8d7183108ca758d64f49",
        "to": "0xb09221660795dec127f8a6a71a622855ed696286",
        "gas": "0xffa3",
        "value": "0x0",
        "input": "0xa9059cbb0000000000000000000000006f1b4077fb9ca4f509ba4364d8be7bc80f017f4a00000000000000000000000000000000000000000000021e19e0c9bab2400000",
        "nonce": "0x7",
        "chainId": "0x7a69"
      },
      "additionalContracts": [],
      "isFixedGasLimit": false
    },
    {
      "hash": null,
      "transactionType": "CALL",
      "contractName": "Wallet",
      "contractAddress": "0x6f1b4077fb9ca4f509ba4364d8be7bc80f017f4a",
      "function": "delegate(address,address)",
      "arguments": [
        "0xcBE9c765549651217B22CEBb74F548E331f4294d",
        "0x3cf0172948f89d58320A8D7183108CA758D64F49"
      ],
      "transaction": {
        "from": "0x6f1b4077fb9ca4f509ba4364d8be7bc80f017f4a",
        "to": "0x6f1b4077fb9ca4f509ba4364d8be7bc80f017f4a",
        "gas": "0x18272",
        "value": "0x0",
        "input": "0x8ab65686000000000000000000000000cbe9c765549651217b22cebb74f548e331f4294d0000000000000000000000003cf0172948f89d58320a8d7183108ca758d64f49",
        "nonce": "0x1",
        "chainId": "0x7a69"
      },
      "additionalContracts": [],
      "isFixedGasLimit": false
    },
    {
      "hash": null,
      "transactionType": "CALL",
      "contractName": "Wallet",
      "contractAddress": "0x6f1b4077fb9ca4f509ba4364d8be7bc80f017f4a",
      "function": "transfer(address,address,uint256)",
      "arguments": [
        "0xcBE9c765549651217B22CEBb74F548E331f4294d",
        "0x3cf0172948f89d58320A8D7183108CA758D64F49",
        "10000000000000000000000"
      ],
      "transaction": {
        "from": "0x6f1b4077fb9ca4f509ba4364d8be7bc80f017f4a",
        "to": "0x6f1b4077fb9ca4f509ba4364d8be7bc80f017f4a",
        "gas": "0x136c8",
        "value": "0x0",
        "input": "0xbeabacc8000000000000000000000000cbe9c765549651217b22cebb74f548e331f4294d0000000000000000000000003cf0172948f89d58320a8d7183108ca758d64f4900000000000000000000000000000000000000000000021e19e0c9bab2400000",
        "nonce": "0x2",
        "chainId": "0x7a69"
      },
      "additionalContracts": [],
      "isFixedGasLimit": false
    },
    {
      "hash": null,
      "transactionType": "CREATE",
      "contractName": "Wallet",
      "contractAddress": "0x6b23ff39868847bf5145d5a9279fb3ec482b61eb",
      "function": null,
      "arguments": null,
      "transaction": {
        "from": "0x3cf0172948f89d58320a8d7183108ca758d64f49",
        "gas": "0x7a56c",
        "value": "0x0",
        "input": "0x608060405234801561001057600080fd5b50306000806101000a81548173ffffffffffffffffffffffffffffffffffffffff021916908373ffffffffffffffffffffffffffffffffffffffff160217905550610598806100606000396000f3fe608060405234801561001057600080fd5b50600436106100575760003560e01c80631e83409a1461005c578063893d20e8146100785780638ab65686146100965780638da5cb5b146100b2578063beabacc8146100d0575b600080fd5b610076600480360381019061007191906103c8565b6100ec565b005b61008061014f565b60405161008d9190610404565b60405180910390f35b6100b060048036038101906100ab919061041f565b610178565b005b6100ba61025b565b6040516100c79190610404565b60405180910390f35b6100ea60048036038101906100e59190610495565b61027f565b005b8073ffffffffffffffffffffffffffffffffffffffff16634e71d92d6040518163ffffffff1660e01b8152600401600060405180830381600087803b15801561013457600080fd5b505af1158015610148573d6000803e3d6000fd5b5050505050565b60008060009054906101000a900473ffffffffffffffffffffffffffffffffffffffff16905090565b60008273ffffffffffffffffffffffffffffffffffffffff1663206a19ae6040518163ffffffff1660e01b8152600401602060405180830381865afa1580156101c5573d6000803e3d6000fd5b505050506040513d601f19601f820116820180604052508101906101e991906104fd565b90508073ffffffffffffffffffffffffffffffffffffffff16635c19a95c836040518263ffffffff1660e01b81526004016102249190610404565b600060405180830381600087803b15801561023e57600080fd5b505af1158015610252573d6000803e3d6000fd5b50505050505050565b60008054906101000a900473ffffffffffffffffffffffffffffffffffffffff1681565b60008373ffffffffffffffffffffffffffffffffffffffff1663206a19ae6040518163ffffffff1660e01b8152600401602060405180830381865afa1580156102cc573d6000803e3d6000fd5b505050506040513d601f19601f820116820180604052508101906102f091906104fd565b90508073ffffffffffffffffffffffffffffffffffffffff1663a9059cbb84846040518363ffffffff1660e01b815260040161032d929190610539565b600060405180830381600087803b15801561034757600080fd5b505af115801561035b573d6000803e3d6000fd5b5050505050505050565b600080fd5b600073ffffffffffffffffffffffffffffffffffffffff82169050919050565b60006103958261036a565b9050919050565b6103a58161038a565b81146103b057600080fd5b50565b6000813590506103c28161039c565b92915050565b6000602082840312156103de576103dd610365565b5b60006103ec848285016103b3565b91505092915050565b6103fe8161038a565b82525050565b600060208201905061041960008301846103f5565b92915050565b6000806040838503121561043657610435610365565b5b6000610444858286016103b3565b9250506020610455858286016103b3565b9150509250929050565b6000819050919050565b6104728161045f565b811461047d57600080fd5b50565b60008135905061048f81610469565b92915050565b6000806000606084860312156104ae576104ad610365565b5b60006104bc868287016103b3565b93505060206104cd868287016103b3565b92505060406104de86828701610480565b9150509250925092565b6000815190506104f78161039c565b92915050565b60006020828403121561051357610512610365565b5b6000610521848285016104e8565b91505092915050565b6105338161045f565b82525050565b600060408201905061054e60008301856103f5565b61055b602083018461052a565b939250505056fea2646970667358221220dbc3e2c7740631c8486119d732e4b288887a94f68cc6db7432360bf020d3268264736f6c634300080d0033",
        "nonce": "0x8",
        "chainId": "0x7a69"
      },
      "additionalContracts": [],
      "isFixedGasLimit": false
    },
    {
      "hash": null,
      "transactionType": "CALL",
      "contractName": null,
      "contractAddress": "0xb09221660795dec127f8a6a71a622855ed696286",
      "function": "transfer(address,uint256)",
      "arguments": [
        "0x6B23ff39868847bF5145D5A9279fB3Ec482B61eB",
        "10000000000000000000000"
      ],
      "transaction": {
        "from": "0x3cf0172948f89d58320a8d7183108ca758d64f49",
        "to": "0xb09221660795dec127f8a6a71a622855ed696286",
        "gas": "0xffa3",
        "value": "0x0",
        "input": "0xa9059cbb0000000000000000000000006b23ff39868847bf5145d5a9279fb3ec482b61eb00000000000000000000000000000000000000000000021e19e0c9bab2400000",
        "nonce": "0x9",
        "chainId": "0x7a69"
      },
      "additionalContracts": [],
      "isFixedGasLimit": false
    },
    {
      "hash": null,
      "transactionType": "CALL",
      "contractName": "Wallet",
      "contractAddress": "0x6b23ff39868847bf5145d5a9279fb3ec482b61eb",
      "function": "delegate(address,address)",
      "arguments": [
        "0xcBE9c765549651217B22CEBb74F548E331f4294d",
        "0x3cf0172948f89d58320A8D7183108CA758D64F49"
      ],
      "transaction": {
        "from": "0x6b23ff39868847bf5145d5a9279fb3ec482b61eb",
        "to": "0x6b23ff39868847bf5145d5a9279fb3ec482b61eb",
        "gas": "0x18272",
        "value": "0x0",
        "input": "0x8ab65686000000000000000000000000cbe9c765549651217b22cebb74f548e331f4294d0000000000000000000000003cf0172948f89d58320a8d7183108ca758d64f49",
        "nonce": "0x1",
        "chainId": "0x7a69"
      },
      "additionalContracts": [],
      "isFixedGasLimit": false
    },
    {
      "hash": null,
      "transactionType": "CALL",
      "contractName": "Wallet",
      "contractAddress": "0x6b23ff39868847bf5145d5a9279fb3ec482b61eb",
      "function": "transfer(address,address,uint256)",
      "arguments": [
        "0xcBE9c765549651217B22CEBb74F548E331f4294d",
        "0x3cf0172948f89d58320A8D7183108CA758D64F49",
        "10000000000000000000000"
      ],
      "transaction": {
        "from": "0x6b23ff39868847bf5145d5a9279fb3ec482b61eb",
        "to": "0x6b23ff39868847bf5145d5a9279fb3ec482b61eb",
        "gas": "0x136c8",
        "value": "0x0",
        "input": "0xbeabacc8000000000000000000000000cbe9c765549651217b22cebb74f548e331f4294d0000000000000000000000003cf0172948f89d58320a8d7183108ca758d64f4900000000000000000000000000000000000000000000021e19e0c9bab2400000",
        "nonce": "0x2",
        "chainId": "0x7a69"
      },
      "additionalContracts": [],
      "isFixedGasLimit": false
    },
    {
      "hash": null,
      "transactionType": "CREATE",
      "contractName": "Wallet",
      "contractAddress": "0x10078cb06fc39bc6aff72dbf27ad55d16d558fa8",
      "function": null,
      "arguments": null,
      "transaction": {
        "from": "0x3cf0172948f89d58320a8d7183108ca758d64f49",
        "gas": "0x7a56c",
        "value": "0x0",
        "input": "0x608060405234801561001057600080fd5b50306000806101000a81548173ffffffffffffffffffffffffffffffffffffffff021916908373ffffffffffffffffffffffffffffffffffffffff160217905550610598806100606000396000f3fe608060405234801561001057600080fd5b50600436106100575760003560e01c80631e83409a1461005c578063893d20e8146100785780638ab65686146100965780638da5cb5b146100b2578063beabacc8146100d0575b600080fd5b610076600480360381019061007191906103c8565b6100ec565b005b61008061014f565b60405161008d9190610404565b60405180910390f35b6100b060048036038101906100ab919061041f565b610178565b005b6100ba61025b565b6040516100c79190610404565b60405180910390f35b6100ea60048036038101906100e59190610495565b61027f565b005b8073ffffffffffffffffffffffffffffffffffffffff16634e71d92d6040518163ffffffff1660e01b8152600401600060405180830381600087803b15801561013457600080fd5b505af1158015610148573d6000803e3d6000fd5b5050505050565b60008060009054906101000a900473ffffffffffffffffffffffffffffffffffffffff16905090565b60008273ffffffffffffffffffffffffffffffffffffffff1663206a19ae6040518163ffffffff1660e01b8152600401602060405180830381865afa1580156101c5573d6000803e3d6000fd5b505050506040513d601f19601f820116820180604052508101906101e991906104fd565b90508073ffffffffffffffffffffffffffffffffffffffff16635c19a95c836040518263ffffffff1660e01b81526004016102249190610404565b600060405180830381600087803b15801561023e57600080fd5b505af1158015610252573d6000803e3d6000fd5b50505050505050565b60008054906101000a900473ffffffffffffffffffffffffffffffffffffffff1681565b60008373ffffffffffffffffffffffffffffffffffffffff1663206a19ae6040518163ffffffff1660e01b8152600401602060405180830381865afa1580156102cc573d6000803e3d6000fd5b505050506040513d601f19601f820116820180604052508101906102f091906104fd565b90508073ffffffffffffffffffffffffffffffffffffffff1663a9059cbb84846040518363ffffffff1660e01b815260040161032d929190610539565b600060405180830381600087803b15801561034757600080fd5b505af115801561035b573d6000803e3d6000fd5b5050505050505050565b600080fd5b600073ffffffffffffffffffffffffffffffffffffffff82169050919050565b60006103958261036a565b9050919050565b6103a58161038a565b81146103b057600080fd5b50565b6000813590506103c28161039c565b92915050565b6000602082840312156103de576103dd610365565b5b60006103ec848285016103b3565b91505092915050565b6103fe8161038a565b82525050565b600060208201905061041960008301846103f5565b92915050565b6000806040838503121561043657610435610365565b5b6000610444858286016103b3565b9250506020610455858286016103b3565b9150509250929050565b6000819050919050565b6104728161045f565b811461047d57600080fd5b50565b60008135905061048f81610469565b92915050565b6000806000606084860312156104ae576104ad610365565b5b60006104bc868287016103b3565b93505060206104cd868287016103b3565b92505060406104de86828701610480565b9150509250925092565b6000815190506104f78161039c565b92915050565b60006020828403121561051357610512610365565b5b6000610521848285016104e8565b91505092915050565b6105338161045f565b82525050565b600060408201905061054e60008301856103f5565b61055b602083018461052a565b939250505056fea2646970667358221220dbc3e2c7740631c8486119d732e4b288887a94f68cc6db7432360bf020d3268264736f6c634300080d0033",
        "nonce": "0xa",
        "chainId": "0x7a69"
      },
      "additionalContracts": [],
      "isFixedGasLimit": false
    },
    {
      "hash": null,
      "transactionType": "CALL",
      "contractName": null,
      "contractAddress": "0xb09221660795dec127f8a6a71a622855ed696286",
      "function": "transfer(address,uint256)",
      "arguments": [
        "0x10078Cb06fC39bc6AFF72dBF27ad55d16D558FA8",
        "10000000000000000000000"
      ],
      "transaction": {
        "from": "0x3cf0172948f89d58320a8d7183108ca758d64f49",
        "to": "0xb09221660795dec127f8a6a71a622855ed696286",
        "gas": "0xffa3",
        "value": "0x0",
        "input": "0xa9059cbb00000000000000000000000010078cb06fc39bc6aff72dbf27ad55d16d558fa800000000000000000000000000000000000000000000021e19e0c9bab2400000",
        "nonce": "0xb",
        "chainId": "0x7a69"
      },
      "additionalContracts": [],
      "isFixedGasLimit": false
    },
    {
      "hash": null,
      "transactionType": "CALL",
      "contractName": "Wallet",
      "contractAddress": "0x10078cb06fc39bc6aff72dbf27ad55d16d558fa8",
      "function": "delegate(address,address)",
      "arguments": [
        "0xcBE9c765549651217B22CEBb74F548E331f4294d",
        "0x3cf0172948f89d58320A8D7183108CA758D64F49"
      ],
      "transaction": {
        "from": "0x10078cb06fc39bc6aff72dbf27ad55d16d558fa8",
        "to": "0x10078cb06fc39bc6aff72dbf27ad55d16d558fa8",
        "gas": "0x18272",
        "value": "0x0",
        "input": "0x8ab65686000000000000000000000000cbe9c765549651217b22cebb74f548e331f4294d0000000000000000000000003cf0172948f89d58320a8d7183108ca758d64f49",
        "nonce": "0x1",
        "chainId": "0x7a69"
      },
      "additionalContracts": [],
      "isFixedGasLimit": false
    },
    {
      "hash": null,
      "transactionType": "CALL",
      "contractName": "Wallet",
      "contractAddress": "0x10078cb06fc39bc6aff72dbf27ad55d16d558fa8",
      "function": "transfer(address,address,uint256)",
      "arguments": [
        "0xcBE9c765549651217B22CEBb74F548E331f4294d",
        "0x3cf0172948f89d58320A8D7183108CA758D64F49",
        "10000000000000000000000"
      ],
      "transaction": {
        "from": "0x10078cb06fc39bc6aff72dbf27ad55d16d558fa8",
        "to": "0x10078cb06fc39bc6aff72dbf27ad55d16d558fa8",
        "gas": "0x136c8",
        "value": "0x0",
        "input": "0xbeabacc8000000000000000000000000cbe9c765549651217b22cebb74f548e331f4294d0000000000000000000000003cf0172948f89d58320a8d7183108ca758d64f4900000000000000000000000000000000000000000000021e19e0c9bab2400000",
        "nonce": "0x2",
        "chainId": "0x7a69"
      },
      "additionalContracts": [],
      "isFixedGasLimit": false
    },
    {
      "hash": null,
      "transactionType": "CREATE",
      "contractName": "Wallet",
      "contractAddress": "0xec26fba403ca6388ea469de37d038be8a3a7c2a4",
      "function": null,
      "arguments": null,
      "transaction": {
        "from": "0x3cf0172948f89d58320a8d7183108ca758d64f49",
        "gas": "0x7a56c",
        "value": "0x0",
        "input": "0x608060405234801561001057600080fd5b50306000806101000a81548173ffffffffffffffffffffffffffffffffffffffff021916908373ffffffffffffffffffffffffffffffffffffffff160217905550610598806100606000396000f3fe608060405234801561001057600080fd5b50600436106100575760003560e01c80631e83409a1461005c578063893d20e8146100785780638ab65686146100965780638da5cb5b146100b2578063beabacc8146100d0575b600080fd5b610076600480360381019061007191906103c8565b6100ec565b005b61008061014f565b60405161008d9190610404565b60405180910390f35b6100b060048036038101906100ab919061041f565b610178565b005b6100ba61025b565b6040516100c79190610404565b60405180910390f35b6100ea60048036038101906100e59190610495565b61027f565b005b8073ffffffffffffffffffffffffffffffffffffffff16634e71d92d6040518163ffffffff1660e01b8152600401600060405180830381600087803b15801561013457600080fd5b505af1158015610148573d6000803e3d6000fd5b5050505050565b60008060009054906101000a900473ffffffffffffffffffffffffffffffffffffffff16905090565b60008273ffffffffffffffffffffffffffffffffffffffff1663206a19ae6040518163ffffffff1660e01b8152600401602060405180830381865afa1580156101c5573d6000803e3d6000fd5b505050506040513d601f19601f820116820180604052508101906101e991906104fd565b90508073ffffffffffffffffffffffffffffffffffffffff16635c19a95c836040518263ffffffff1660e01b81526004016102249190610404565b600060405180830381600087803b15801561023e57600080fd5b505af1158015610252573d6000803e3d6000fd5b50505050505050565b60008054906101000a900473ffffffffffffffffffffffffffffffffffffffff1681565b60008373ffffffffffffffffffffffffffffffffffffffff1663206a19ae6040518163ffffffff1660e01b8152600401602060405180830381865afa1580156102cc573d6000803e3d6000fd5b505050506040513d601f19601f820116820180604052508101906102f091906104fd565b90508073ffffffffffffffffffffffffffffffffffffffff1663a9059cbb84846040518363ffffffff1660e01b815260040161032d929190610539565b600060405180830381600087803b15801561034757600080fd5b505af115801561035b573d6000803e3d6000fd5b5050505050505050565b600080fd5b600073ffffffffffffffffffffffffffffffffffffffff82169050919050565b60006103958261036a565b9050919050565b6103a58161038a565b81146103b057600080fd5b50565b6000813590506103c28161039c565b92915050565b6000602082840312156103de576103dd610365565b5b60006103ec848285016103b3565b91505092915050565b6103fe8161038a565b82525050565b600060208201905061041960008301846103f5565b92915050565b6000806040838503121561043657610435610365565b5b6000610444858286016103b3565b9250506020610455858286016103b3565b9150509250929050565b6000819050919050565b6104728161045f565b811461047d57600080fd5b50565b60008135905061048f81610469565b92915050565b6000806000606084860312156104ae576104ad610365565b5b60006104bc868287016103b3565b93505060206104cd868287016103b3565b92505060406104de86828701610480565b9150509250925092565b6000815190506104f78161039c565b92915050565b60006020828403121561051357610512610365565b5b6000610521848285016104e8565b91505092915050565b6105338161045f565b82525050565b600060408201905061054e60008301856103f5565b61055b602083018461052a565b939250505056fea2646970667358221220dbc3e2c7740631c8486119d732e4b288887a94f68cc6db7432360bf020d3268264736f6c634300080d0033",
        "nonce": "0xc",
        "chainId": "0x7a69"
      },
      "additionalContracts": [],
      "isFixedGasLimit": false
    },
    {
      "hash": null,
      "transactionType": "CALL",
      "contractName": null,
      "contractAddress": "0xb09221660795dec127f8a6a71a622855ed696286",
      "function": "transfer(address,uint256)",
      "arguments": [
        "0xec26FBA403CA6388Ea469de37D038Be8a3a7c2a4",
        "10000000000000000000000"
      ],
      "transaction": {
        "from": "0x3cf0172948f89d58320a8d7183108ca758d64f49",
        "to": "0xb09221660795dec127f8a6a71a622855ed696286",
        "gas": "0xffa3",
        "value": "0x0",
        "input": "0xa9059cbb000000000000000000000000ec26fba403ca6388ea469de37d038be8a3a7c2a400000000000000000000000000000000000000000000021e19e0c9bab2400000",
        "nonce": "0xd",
        "chainId": "0x7a69"
      },
      "additionalContracts": [],
      "isFixedGasLimit": false
    },
    {
      "hash": null,
      "transactionType": "CALL",
      "contractName": "Wallet",
      "contractAddress": "0xec26fba403ca6388ea469de37d038be8a3a7c2a4",
      "function": "delegate(address,address)",
      "arguments": [
        "0xcBE9c765549651217B22CEBb74F548E331f4294d",
        "0x3cf0172948f89d58320A8D7183108CA758D64F49"
      ],
      "transaction": {
        "from": "0xec26fba403ca6388ea469de37d038be8a3a7c2a4",
        "to": "0xec26fba403ca6388ea469de37d038be8a3a7c2a4",
        "gas": "0x18272",
        "value": "0x0",
        "input": "0x8ab65686000000000000000000000000cbe9c765549651217b22cebb74f548e331f4294d0000000000000000000000003cf0172948f89d58320a8d7183108ca758d64f49",
        "nonce": "0x1",
        "chainId": "0x7a69"
      },
      "additionalContracts": [],
      "isFixedGasLimit": false
    },
    {
      "hash": null,
      "transactionType": "CALL",
      "contractName": "Wallet",
      "contractAddress": "0xec26fba403ca6388ea469de37d038be8a3a7c2a4",
      "function": "transfer(address,address,uint256)",
      "arguments": [
        "0xcBE9c765549651217B22CEBb74F548E331f4294d",
        "0x3cf0172948f89d58320A8D7183108CA758D64F49",
        "10000000000000000000000"
      ],
      "transaction": {
        "from": "0xec26fba403ca6388ea469de37d038be8a3a7c2a4",
        "to": "0xec26fba403ca6388ea469de37d038be8a3a7c2a4",
        "gas": "0x136c8",
        "value": "0x0",
        "input": "0xbeabacc8000000000000000000000000cbe9c765549651217b22cebb74f548e331f4294d0000000000000000000000003cf0172948f89d58320a8d7183108ca758d64f4900000000000000000000000000000000000000000000021e19e0c9bab2400000",
        "nonce": "0x2",
        "chainId": "0x7a69"
      },
      "additionalContracts": [],
      "isFixedGasLimit": false
    },
    {
      "hash": null,
      "transactionType": "CREATE",
      "contractName": "Wallet",
      "contractAddress": "0xe539fdd30ce0f99785de13304686f61c2aa64647",
      "function": null,
      "arguments": null,
      "transaction": {
        "from": "0x3cf0172948f89d58320a8d7183108ca758d64f49",
        "gas": "0x7a56c",
        "value": "0x0",
        "input": "0x608060405234801561001057600080fd5b50306000806101000a81548173ffffffffffffffffffffffffffffffffffffffff021916908373ffffffffffffffffffffffffffffffffffffffff160217905550610598806100606000396000f3fe608060405234801561001057600080fd5b50600436106100575760003560e01c80631e83409a1461005c578063893d20e8146100785780638ab65686146100965780638da5cb5b146100b2578063beabacc8146100d0575b600080fd5b610076600480360381019061007191906103c8565b6100ec565b005b61008061014f565b60405161008d9190610404565b60405180910390f35b6100b060048036038101906100ab919061041f565b610178565b005b6100ba61025b565b6040516100c79190610404565b60405180910390f35b6100ea60048036038101906100e59190610495565b61027f565b005b8073ffffffffffffffffffffffffffffffffffffffff16634e71d92d6040518163ffffffff1660e01b8152600401600060405180830381600087803b15801561013457600080fd5b505af1158015610148573d6000803e3d6000fd5b5050505050565b60008060009054906101000a900473ffffffffffffffffffffffffffffffffffffffff16905090565b60008273ffffffffffffffffffffffffffffffffffffffff1663206a19ae6040518163ffffffff1660e01b8152600401602060405180830381865afa1580156101c5573d6000803e3d6000fd5b505050506040513d601f19601f820116820180604052508101906101e991906104fd565b90508073ffffffffffffffffffffffffffffffffffffffff16635c19a95c836040518263ffffffff1660e01b81526004016102249190610404565b600060405180830381600087803b15801561023e57600080fd5b505af1158015610252573d6000803e3d6000fd5b50505050505050565b60008054906101000a900473ffffffffffffffffffffffffffffffffffffffff1681565b60008373ffffffffffffffffffffffffffffffffffffffff1663206a19ae6040518163ffffffff1660e01b8152600401602060405180830381865afa1580156102cc573d6000803e3d6000fd5b505050506040513d601f19601f820116820180604052508101906102f091906104fd565b90508073ffffffffffffffffffffffffffffffffffffffff1663a9059cbb84846040518363ffffffff1660e01b815260040161032d929190610539565b600060405180830381600087803b15801561034757600080fd5b505af115801561035b573d6000803e3d6000fd5b5050505050505050565b600080fd5b600073ffffffffffffffffffffffffffffffffffffffff82169050919050565b60006103958261036a565b9050919050565b6103a58161038a565b81146103b057600080fd5b50565b6000813590506103c28161039c565b92915050565b6000602082840312156103de576103dd610365565b5b60006103ec848285016103b3565b91505092915050565b6103fe8161038a565b82525050565b600060208201905061041960008301846103f5565b92915050565b6000806040838503121561043657610435610365565b5b6000610444858286016103b3565b9250506020610455858286016103b3565b9150509250929050565b6000819050919050565b6104728161045f565b811461047d57600080fd5b50565b60008135905061048f81610469565b92915050565b6000806000606084860312156104ae576104ad610365565b5b60006104bc868287016103b3565b93505060206104cd868287016103b3565b92505060406104de86828701610480565b9150509250925092565b6000815190506104f78161039c565b92915050565b60006020828403121561051357610512610365565b5b6000610521848285016104e8565b91505092915050565b6105338161045f565b82525050565b600060408201905061054e60008301856103f5565b61055b602083018461052a565b939250505056fea2646970667358221220dbc3e2c7740631c8486119d732e4b288887a94f68cc6db7432360bf020d3268264736f6c634300080d0033",
        "nonce": "0xe",
        "chainId": "0x7a69"
      },
      "additionalContracts": [],
      "isFixedGasLimit": false
    },
    {
      "hash": null,
      "transactionType": "CALL",
      "contractName": null,
      "contractAddress": "0xb09221660795dec127f8a6a71a622855ed696286",
      "function": "transfer(address,uint256)",
      "arguments": [
        "0xE539fdD30Ce0f99785dE13304686f61C2Aa64647",
        "10000000000000000000000"
      ],
      "transaction": {
        "from": "0x3cf0172948f89d58320a8d7183108ca758d64f49",
        "to": "0xb09221660795dec127f8a6a71a622855ed696286",
        "gas": "0xffa3",
        "value": "0x0",
        "input": "0xa9059cbb000000000000000000000000e539fdd30ce0f99785de13304686f61c2aa6464700000000000000000000000000000000000000000000021e19e0c9bab2400000",
        "nonce": "0xf",
        "chainId": "0x7a69"
      },
      "additionalContracts": [],
      "isFixedGasLimit": false
    },
    {
      "hash": null,
      "transactionType": "CALL",
      "contractName": "Wallet",
      "contractAddress": "0xe539fdd30ce0f99785de13304686f61c2aa64647",
      "function": "delegate(address,address)",
      "arguments": [
        "0xcBE9c765549651217B22CEBb74F548E331f4294d",
        "0x3cf0172948f89d58320A8D7183108CA758D64F49"
      ],
      "transaction": {
        "from": "0xe539fdd30ce0f99785de13304686f61c2aa64647",
        "to": "0xe539fdd30ce0f99785de13304686f61c2aa64647",
        "gas": "0x18272",
        "value": "0x0",
        "input": "0x8ab65686000000000000000000000000cbe9c765549651217b22cebb74f548e331f4294d0000000000000000000000003cf0172948f89d58320a8d7183108ca758d64f49",
        "nonce": "0x1",
        "chainId": "0x7a69"
      },
      "additionalContracts": [],
      "isFixedGasLimit": false
    },
    {
      "hash": null,
      "transactionType": "CALL",
      "contractName": "Wallet",
      "contractAddress": "0xe539fdd30ce0f99785de13304686f61c2aa64647",
      "function": "transfer(address,address,uint256)",
      "arguments": [
        "0xcBE9c765549651217B22CEBb74F548E331f4294d",
        "0x3cf0172948f89d58320A8D7183108CA758D64F49",
        "10000000000000000000000"
      ],
      "transaction": {
        "from": "0xe539fdd30ce0f99785de13304686f61c2aa64647",
        "to": "0xe539fdd30ce0f99785de13304686f61c2aa64647",
        "gas": "0x136c8",
        "value": "0x0",
        "input": "0xbeabacc8000000000000000000000000cbe9c765549651217b22cebb74f548e331f4294d0000000000000000000000003cf0172948f89d58320a8d7183108ca758d64f4900000000000000000000000000000000000000000000021e19e0c9bab2400000",
        "nonce": "0x2",
        "chainId": "0x7a69"
      },
      "additionalContracts": [],
      "isFixedGasLimit": false
    },
    {
      "hash": null,
      "transactionType": "CREATE",
      "contractName": "Wallet",
      "contractAddress": "0x061a513f0e9cfba629fb4294153e4184cf517046",
      "function": null,
      "arguments": null,
      "transaction": {
        "from": "0x3cf0172948f89d58320a8d7183108ca758d64f49",
        "gas": "0x7a56c",
        "value": "0x0",
        "input": "0x608060405234801561001057600080fd5b50306000806101000a81548173ffffffffffffffffffffffffffffffffffffffff021916908373ffffffffffffffffffffffffffffffffffffffff160217905550610598806100606000396000f3fe608060405234801561001057600080fd5b50600436106100575760003560e01c80631e83409a1461005c578063893d20e8146100785780638ab65686146100965780638da5cb5b146100b2578063beabacc8146100d0575b600080fd5b610076600480360381019061007191906103c8565b6100ec565b005b61008061014f565b60405161008d9190610404565b60405180910390f35b6100b060048036038101906100ab919061041f565b610178565b005b6100ba61025b565b6040516100c79190610404565b60405180910390f35b6100ea60048036038101906100e59190610495565b61027f565b005b8073ffffffffffffffffffffffffffffffffffffffff16634e71d92d6040518163ffffffff1660e01b8152600401600060405180830381600087803b15801561013457600080fd5b505af1158015610148573d6000803e3d6000fd5b5050505050565b60008060009054906101000a900473ffffffffffffffffffffffffffffffffffffffff16905090565b60008273ffffffffffffffffffffffffffffffffffffffff1663206a19ae6040518163ffffffff1660e01b8152600401602060405180830381865afa1580156101c5573d6000803e3d6000fd5b505050506040513d601f19601f820116820180604052508101906101e991906104fd565b90508073ffffffffffffffffffffffffffffffffffffffff16635c19a95c836040518263ffffffff1660e01b81526004016102249190610404565b600060405180830381600087803b15801561023e57600080fd5b505af1158015610252573d6000803e3d6000fd5b50505050505050565b60008054906101000a900473ffffffffffffffffffffffffffffffffffffffff1681565b60008373ffffffffffffffffffffffffffffffffffffffff1663206a19ae6040518163ffffffff1660e01b8152600401602060405180830381865afa1580156102cc573d6000803e3d6000fd5b505050506040513d601f19601f820116820180604052508101906102f091906104fd565b90508073ffffffffffffffffffffffffffffffffffffffff1663a9059cbb84846040518363ffffffff1660e01b815260040161032d929190610539565b600060405180830381600087803b15801561034757600080fd5b505af115801561035b573d6000803e3d6000fd5b5050505050505050565b600080fd5b600073ffffffffffffffffffffffffffffffffffffffff82169050919050565b60006103958261036a565b9050919050565b6103a58161038a565b81146103b057600080fd5b50565b6000813590506103c28161039c565b92915050565b6000602082840312156103de576103dd610365565b5b60006103ec848285016103b3565b91505092915050565b6103fe8161038a565b82525050565b600060208201905061041960008301846103f5565b92915050565b6000806040838503121561043657610435610365565b5b6000610444858286016103b3565b9250506020610455858286016103b3565b9150509250929050565b6000819050919050565b6104728161045f565b811461047d57600080fd5b50565b60008135905061048f81610469565b92915050565b6000806000606084860312156104ae576104ad610365565b5b60006104bc868287016103b3565b93505060206104cd868287016103b3565b92505060406104de86828701610480565b9150509250925092565b6000815190506104f78161039c565b92915050565b60006020828403121561051357610512610365565b5b6000610521848285016104e8565b91505092915050565b6105338161045f565b82525050565b600060408201905061054e60008301856103f5565b61055b602083018461052a565b939250505056fea2646970667358221220dbc3e2c7740631c8486119d732e4b288887a94f68cc6db7432360bf020d3268264736f6c634300080d0033",
        "nonce": "0x10",
        "chainId": "0x7a69"
      },
      "additionalContracts": [],
      "isFixedGasLimit": false
    },
    {
      "hash": null,
      "transactionType": "CALL",
      "contractName": null,
      "contractAddress": "0xb09221660795dec127f8a6a71a622855ed696286",
      "function": "transfer(address,uint256)",
      "arguments": [
        "0x061A513F0E9CFBa629fb4294153E4184CF517046",
        "10000000000000000000000"
      ],
      "transaction": {
        "from": "0x3cf0172948f89d58320a8d7183108ca758d64f49",
        "to": "0xb09221660795dec127f8a6a71a622855ed696286",
        "gas": "0xffa3",
        "value": "0x0",
        "input": "0xa9059cbb000000000000000000000000061a513f0e9cfba629fb4294153e4184cf51704600000000000000000000000000000000000000000000021e19e0c9bab2400000",
        "nonce": "0x11",
        "chainId": "0x7a69"
      },
      "additionalContracts": [],
      "isFixedGasLimit": false
    },
    {
      "hash": null,
      "transactionType": "CALL",
      "contractName": "Wallet",
      "contractAddress": "0x061a513f0e9cfba629fb4294153e4184cf517046",
      "function": "delegate(address,address)",
      "arguments": [
        "0xcBE9c765549651217B22CEBb74F548E331f4294d",
        "0x3cf0172948f89d58320A8D7183108CA758D64F49"
      ],
      "transaction": {
        "from": "0x061a513f0e9cfba629fb4294153e4184cf517046",
        "to": "0x061a513f0e9cfba629fb4294153e4184cf517046",
        "gas": "0x18272",
        "value": "0x0",
        "input": "0x8ab65686000000000000000000000000cbe9c765549651217b22cebb74f548e331f4294d0000000000000000000000003cf0172948f89d58320a8d7183108ca758d64f49",
        "nonce": "0x1",
        "chainId": "0x7a69"
      },
      "additionalContracts": [],
      "isFixedGasLimit": false
    },
    {
      "hash": null,
      "transactionType": "CALL",
      "contractName": "Wallet",
      "contractAddress": "0x061a513f0e9cfba629fb4294153e4184cf517046",
      "function": "transfer(address,address,uint256)",
      "arguments": [
        "0xcBE9c765549651217B22CEBb74F548E331f4294d",
        "0x3cf0172948f89d58320A8D7183108CA758D64F49",
        "10000000000000000000000"
      ],
      "transaction": {
        "from": "0x061a513f0e9cfba629fb4294153e4184cf517046",
        "to": "0x061a513f0e9cfba629fb4294153e4184cf517046",
        "gas": "0x136c8",
        "value": "0x0",
        "input": "0xbeabacc8000000000000000000000000cbe9c765549651217b22cebb74f548e331f4294d0000000000000000000000003cf0172948f89d58320a8d7183108ca758d64f4900000000000000000000000000000000000000000000021e19e0c9bab2400000",
        "nonce": "0x2",
        "chainId": "0x7a69"
      },
      "additionalContracts": [],
      "isFixedGasLimit": false
    },
    {
      "hash": null,
      "transactionType": "CREATE",
      "contractName": "Wallet",
      "contractAddress": "0x1fa876f09fb0bf9b6ae4d7cc313673cd0d9991d8",
      "function": null,
      "arguments": null,
      "transaction": {
        "from": "0x3cf0172948f89d58320a8d7183108ca758d64f49",
        "gas": "0x7a56c",
        "value": "0x0",
        "input": "0x608060405234801561001057600080fd5b50306000806101000a81548173ffffffffffffffffffffffffffffffffffffffff021916908373ffffffffffffffffffffffffffffffffffffffff160217905550610598806100606000396000f3fe608060405234801561001057600080fd5b50600436106100575760003560e01c80631e83409a1461005c578063893d20e8146100785780638ab65686146100965780638da5cb5b146100b2578063beabacc8146100d0575b600080fd5b610076600480360381019061007191906103c8565b6100ec565b005b61008061014f565b60405161008d9190610404565b60405180910390f35b6100b060048036038101906100ab919061041f565b610178565b005b6100ba61025b565b6040516100c79190610404565b60405180910390f35b6100ea60048036038101906100e59190610495565b61027f565b005b8073ffffffffffffffffffffffffffffffffffffffff16634e71d92d6040518163ffffffff1660e01b8152600401600060405180830381600087803b15801561013457600080fd5b505af1158015610148573d6000803e3d6000fd5b5050505050565b60008060009054906101000a900473ffffffffffffffffffffffffffffffffffffffff16905090565b60008273ffffffffffffffffffffffffffffffffffffffff1663206a19ae6040518163ffffffff1660e01b8152600401602060405180830381865afa1580156101c5573d6000803e3d6000fd5b505050506040513d601f19601f820116820180604052508101906101e991906104fd565b90508073ffffffffffffffffffffffffffffffffffffffff16635c19a95c836040518263ffffffff1660e01b81526004016102249190610404565b600060405180830381600087803b15801561023e57600080fd5b505af1158015610252573d6000803e3d6000fd5b50505050505050565b60008054906101000a900473ffffffffffffffffffffffffffffffffffffffff1681565b60008373ffffffffffffffffffffffffffffffffffffffff1663206a19ae6040518163ffffffff1660e01b8152600401602060405180830381865afa1580156102cc573d6000803e3d6000fd5b505050506040513d601f19601f820116820180604052508101906102f091906104fd565b90508073ffffffffffffffffffffffffffffffffffffffff1663a9059cbb84846040518363ffffffff1660e01b815260040161032d929190610539565b600060405180830381600087803b15801561034757600080fd5b505af115801561035b573d6000803e3d6000fd5b5050505050505050565b600080fd5b600073ffffffffffffffffffffffffffffffffffffffff82169050919050565b60006103958261036a565b9050919050565b6103a58161038a565b81146103b057600080fd5b50565b6000813590506103c28161039c565b92915050565b6000602082840312156103de576103dd610365565b5b60006103ec848285016103b3565b91505092915050565b6103fe8161038a565b82525050565b600060208201905061041960008301846103f5565b92915050565b6000806040838503121561043657610435610365565b5b6000610444858286016103b3565b9250506020610455858286016103b3565b9150509250929050565b6000819050919050565b6104728161045f565b811461047d57600080fd5b50565b60008135905061048f81610469565b92915050565b6000806000606084860312156104ae576104ad610365565b5b60006104bc868287016103b3565b93505060206104cd868287016103b3565b92505060406104de86828701610480565b9150509250925092565b6000815190506104f78161039c565b92915050565b60006020828403121561051357610512610365565b5b6000610521848285016104e8565b91505092915050565b6105338161045f565b82525050565b600060408201905061054e60008301856103f5565b61055b602083018461052a565b939250505056fea2646970667358221220dbc3e2c7740631c8486119d732e4b288887a94f68cc6db7432360bf020d3268264736f6c634300080d0033",
        "nonce": "0x12",
        "chainId": "0x7a69"
      },
      "additionalContracts": [],
      "isFixedGasLimit": false
    },
    {
      "hash": null,
      "transactionType": "CALL",
      "contractName": null,
      "contractAddress": "0xb09221660795dec127f8a6a71a622855ed696286",
      "function": "transfer(address,uint256)",
      "arguments": [
        "0x1FA876F09FB0BF9b6ae4D7cC313673cD0D9991D8",
        "10000000000000000000000"
      ],
      "transaction": {
        "from": "0x3cf0172948f89d58320a8d7183108ca758d64f49",
        "to": "0xb09221660795dec127f8a6a71a622855ed696286",
        "gas": "0xffa3",
        "value": "0x0",
        "input": "0xa9059cbb0000000000000000000000001fa876f09fb0bf9b6ae4d7cc313673cd0d9991d800000000000000000000000000000000000000000000021e19e0c9bab2400000",
        "nonce": "0x13",
        "chainId": "0x7a69"
      },
      "additionalContracts": [],
      "isFixedGasLimit": false
    },
    {
      "hash": null,
      "transactionType": "CALL",
      "contractName": "Wallet",
      "contractAddress": "0x1fa876f09fb0bf9b6ae4d7cc313673cd0d9991d8",
      "function": "delegate(address,address)",
      "arguments": [
        "0xcBE9c765549651217B22CEBb74F548E331f4294d",
        "0x3cf0172948f89d58320A8D7183108CA758D64F49"
      ],
      "transaction": {
        "from": "0x1fa876f09fb0bf9b6ae4d7cc313673cd0d9991d8",
        "to": "0x1fa876f09fb0bf9b6ae4d7cc313673cd0d9991d8",
        "gas": "0x18272",
        "value": "0x0",
        "input": "0x8ab65686000000000000000000000000cbe9c765549651217b22cebb74f548e331f4294d0000000000000000000000003cf0172948f89d58320a8d7183108ca758d64f49",
        "nonce": "0x1",
        "chainId": "0x7a69"
      },
      "additionalContracts": [],
      "isFixedGasLimit": false
    },
    {
      "hash": null,
      "transactionType": "CALL",
      "contractName": "Wallet",
      "contractAddress": "0x1fa876f09fb0bf9b6ae4d7cc313673cd0d9991d8",
      "function": "transfer(address,address,uint256)",
      "arguments": [
        "0xcBE9c765549651217B22CEBb74F548E331f4294d",
        "0x3cf0172948f89d58320A8D7183108CA758D64F49",
        "10000000000000000000000"
      ],
      "transaction": {
        "from": "0x1fa876f09fb0bf9b6ae4d7cc313673cd0d9991d8",
        "to": "0x1fa876f09fb0bf9b6ae4d7cc313673cd0d9991d8",
        "gas": "0x136c8",
        "value": "0x0",
        "input": "0xbeabacc8000000000000000000000000cbe9c765549651217b22cebb74f548e331f4294d0000000000000000000000003cf0172948f89d58320a8d7183108ca758d64f4900000000000000000000000000000000000000000000021e19e0c9bab2400000",
        "nonce": "0x2",
        "chainId": "0x7a69"
      },
      "additionalContracts": [],
      "isFixedGasLimit": false
    },
    {
      "hash": null,
      "transactionType": "CREATE",
      "contractName": "Wallet",
      "contractAddress": "0x573c58af732eab685e272f68737b6df1ad96e20d",
      "function": null,
      "arguments": null,
      "transaction": {
        "from": "0x3cf0172948f89d58320a8d7183108ca758d64f49",
        "gas": "0x7a56c",
        "value": "0x0",
        "input": "0x608060405234801561001057600080fd5b50306000806101000a81548173ffffffffffffffffffffffffffffffffffffffff021916908373ffffffffffffffffffffffffffffffffffffffff160217905550610598806100606000396000f3fe608060405234801561001057600080fd5b50600436106100575760003560e01c80631e83409a1461005c578063893d20e8146100785780638ab65686146100965780638da5cb5b146100b2578063beabacc8146100d0575b600080fd5b610076600480360381019061007191906103c8565b6100ec565b005b61008061014f565b60405161008d9190610404565b60405180910390f35b6100b060048036038101906100ab919061041f565b610178565b005b6100ba61025b565b6040516100c79190610404565b60405180910390f35b6100ea60048036038101906100e59190610495565b61027f565b005b8073ffffffffffffffffffffffffffffffffffffffff16634e71d92d6040518163ffffffff1660e01b8152600401600060405180830381600087803b15801561013457600080fd5b505af1158015610148573d6000803e3d6000fd5b5050505050565b60008060009054906101000a900473ffffffffffffffffffffffffffffffffffffffff16905090565b60008273ffffffffffffffffffffffffffffffffffffffff1663206a19ae6040518163ffffffff1660e01b8152600401602060405180830381865afa1580156101c5573d6000803e3d6000fd5b505050506040513d601f19601f820116820180604052508101906101e991906104fd565b90508073ffffffffffffffffffffffffffffffffffffffff16635c19a95c836040518263ffffffff1660e01b81526004016102249190610404565b600060405180830381600087803b15801561023e57600080fd5b505af1158015610252573d6000803e3d6000fd5b50505050505050565b60008054906101000a900473ffffffffffffffffffffffffffffffffffffffff1681565b60008373ffffffffffffffffffffffffffffffffffffffff1663206a19ae6040518163ffffffff1660e01b8152600401602060405180830381865afa1580156102cc573d6000803e3d6000fd5b505050506040513d601f19601f820116820180604052508101906102f091906104fd565b90508073ffffffffffffffffffffffffffffffffffffffff1663a9059cbb84846040518363ffffffff1660e01b815260040161032d929190610539565b600060405180830381600087803b15801561034757600080fd5b505af115801561035b573d6000803e3d6000fd5b5050505050505050565b600080fd5b600073ffffffffffffffffffffffffffffffffffffffff82169050919050565b60006103958261036a565b9050919050565b6103a58161038a565b81146103b057600080fd5b50565b6000813590506103c28161039c565b92915050565b6000602082840312156103de576103dd610365565b5b60006103ec848285016103b3565b91505092915050565b6103fe8161038a565b82525050565b600060208201905061041960008301846103f5565b92915050565b6000806040838503121561043657610435610365565b5b6000610444858286016103b3565b9250506020610455858286016103b3565b9150509250929050565b6000819050919050565b6104728161045f565b811461047d57600080fd5b50565b60008135905061048f81610469565b92915050565b6000806000606084860312156104ae576104ad610365565b5b60006104bc868287016103b3565b93505060206104cd868287016103b3565b92505060406104de86828701610480565b9150509250925092565b6000815190506104f78161039c565b92915050565b60006020828403121561051357610512610365565b5b6000610521848285016104e8565b91505092915050565b6105338161045f565b82525050565b600060408201905061054e60008301856103f5565b61055b602083018461052a565b939250505056fea2646970667358221220dbc3e2c7740631c8486119d732e4b288887a94f68cc6db7432360bf020d3268264736f6c634300080d0033",
        "nonce": "0x14",
        "chainId": "0x7a69"
      },
      "additionalContracts": [],
      "isFixedGasLimit": false
    },
    {
      "hash": null,
      "transactionType": "CALL",
      "contractName": null,
      "contractAddress": "0xb09221660795dec127f8a6a71a622855ed696286",
      "function": "transfer(address,uint256)",
      "arguments": [
        "0x573c58Af732eaB685E272F68737b6dF1Ad96e20D",
        "10000000000000000000000"
      ],
      "transaction": {
        "from": "0x3cf0172948f89d58320a8d7183108ca758d64f49",
        "to": "0xb09221660795dec127f8a6a71a622855ed696286",
        "gas": "0xffa3",
        "value": "0x0",
        "input": "0xa9059cbb000000000000000000000000573c58af732eab685e272f68737b6df1ad96e20d00000000000000000000000000000000000000000000021e19e0c9bab2400000",
        "nonce": "0x15",
        "chainId": "0x7a69"
      },
      "additionalContracts": [],
      "isFixedGasLimit": false
    },
    {
      "hash": null,
      "transactionType": "CALL",
      "contractName": "Wallet",
      "contractAddress": "0x573c58af732eab685e272f68737b6df1ad96e20d",
      "function": "delegate(address,address)",
      "arguments": [
        "0xcBE9c765549651217B22CEBb74F548E331f4294d",
        "0x3cf0172948f89d58320A8D7183108CA758D64F49"
      ],
      "transaction": {
        "from": "0x573c58af732eab685e272f68737b6df1ad96e20d",
        "to": "0x573c58af732eab685e272f68737b6df1ad96e20d",
        "gas": "0x18272",
        "value": "0x0",
        "input": "0x8ab65686000000000000000000000000cbe9c765549651217b22cebb74f548e331f4294d0000000000000000000000003cf0172948f89d58320a8d7183108ca758d64f49",
        "nonce": "0x1",
        "chainId": "0x7a69"
      },
      "additionalContracts": [],
      "isFixedGasLimit": false
    },
    {
      "hash": null,
      "transactionType": "CALL",
      "contractName": "Wallet",
      "contractAddress": "0x573c58af732eab685e272f68737b6df1ad96e20d",
      "function": "transfer(address,address,uint256)",
      "arguments": [
        "0xcBE9c765549651217B22CEBb74F548E331f4294d",
        "0x3cf0172948f89d58320A8D7183108CA758D64F49",
        "10000000000000000000000"
      ],
      "transaction": {
        "from": "0x573c58af732eab685e272f68737b6df1ad96e20d",
        "to": "0x573c58af732eab685e272f68737b6df1ad96e20d",
        "gas": "0x136c8",
        "value": "0x0",
        "input": "0xbeabacc8000000000000000000000000cbe9c765549651217b22cebb74f548e331f4294d0000000000000000000000003cf0172948f89d58320a8d7183108ca758d64f4900000000000000000000000000000000000000000000021e19e0c9bab2400000",
        "nonce": "0x2",
        "chainId": "0x7a69"
      },
      "additionalContracts": [],
      "isFixedGasLimit": false
    }
  ],
  "receipts": [],
  "libraries": [],
  "pending": [],
  "returns": {},
  "timestamp": 1737941368,
  "chain": 31337,
  "commit": null
}